:100000000C947C3D0C94E73D0C94E73D0C94E73D4B
:100010000C94E73D0C94E73D0C94E73D0C94E73DD0
:100020000C94E73D0C94E73D0C94E73D0C94E73DC0
:100030000C94E73D0C9432410C9471410C949D3E1C
:100040000C94E73D0C94E73D0C94E73D0C94E73DA0
:100050000C94E73D0C94E73D0C94E73D0C94E73D90
:100060000C94E73D0C94E73D0C94E73D0C94E73D80
:10007000810045005DFF5E1027FF2AD22B7D210CF9
:1000800022FB850084008903888D81096F02444228
:1000900047004501B083B300B10124B925578A1D3B
:1000A0008B035A55012001010038080000000000B0
:1000B0000000000000000000000000000000000040
:1000C0000000B043B3430F4413441A44BB43C0433E
:1000D000C5432244C843CB43CE4309440C44324475
:1000E00000408891D2E4ADB5B6BEBFFF0503001352
:1000F0001415161718191A1B1C1D1E1F00050400C5
:100100000102030405060708090A0B0C0D000E0F77
:1001100010111200000000000000000000000000AC
:1001200000000000000000000000000000000000CF
:1001300000000000000000000000000000000000BF
:1001400000000000000000000000000000000000AF
:10015000000000000000000000000000000000009F
:10016000000000000000000000000000000000008F
:1001700000004900000000004952520000004952AE
:10018000531C25004952522425251B52525C2D2D0B
:100190001C121200000000000000000000000040DF
:1001A00049494900404949525B5B5B4A52525B1CDA
:1001B0001C13125B1C241C12090909241B120909B7
:1001C00009090A0A0A0A0A0A0A0A130A0A120A0A80
:1001D00012130A0000000000000000925252525216
:1001E00052524913121309001C1B130A1212401B0E
:1001F00065641C090A0009241B1C65120000251CEB
:100200001C1C1C010025241C1C1C1C00242524244F
:10021000241C1C00000000000000004940000000F9
:1002200000000052494900000000001C5B4A4800E1
:100230000000001C255249000000006524644900AC
:1002400000000065256449000000006D2E5C490037
:10025000000000000000000000405200000000000C
:1002600049525C0000000053522425000000535204
:1002700025252500004A5225251B0000005B25137B
:1002800000001B005B53000A1C3737095B1C657FAD
:10029000372E2E522E2E1C131312002E251B131236
:1002A0000000121C1C12000012251C120000122E4D
:1002B000371C1300132E37361C131B37372E2E25F1
:1002C000131C1C2E2E2E2E1B1C1C1C6E6E6E1C1C3A
:1002D0001C1C1C09131312121313001313131313F2
:1002E0001C0009131313131C0100371313131C13E1
:1002F000002E2E1B1B1C1C001C772E1B1B25001305
:100300007F251C1C1C010A37241C1C1C130A2E25CB
:10031000250900132E2425252525252E25252525CF
:1003200025252525252D2E251B1C1C2E2E251C1391
:10033000251B13251C1C1C1C0109521C1C1300012D
:100340001C5B5C0A000165775C1B00016E7F6E52CE
:100350001B00006D1C5249000000001C13530000DC
:100360000000001C524A00000000005B5B0000001F
:100370000000005C00000000000000000000000021
:10038000000000000000000000000000000000006D
:10039000000000135B7F776E6E6E6E136577766E6E
:1003A0006E6E6E1B65777676766E771B5BBF76B664
:1003B00076767609136DBFB7B6B765001B125C760B
:1003C000BF766D0000121B125B5B5C000000000931
:1003D0000A12136E77241C1C1C1C1C77251C1C1C69
:1003E0001C24256E1C1C1C2425251B1C1C242525B7
:1003F000130000646D6D1B00096EBF6D5B09126E0A
:10040000BF6D5B5B125B645B121312131B1212094C
:100410000100001C242E1C0900096E25240100097E
:10042000767F7F000012777F7F641264BFBF775BA7
:10043000121B09BF6D5B121B09000012131B090080
:1004400000000009000000000000000000000000A3
:100450000000007F7F53131300000064121B010093
:100460000000001B1200000000000000000000005F
:10047000000000000000000000000000000000007C
:10048000000000000000000000000000000000006C
:100490000000000000000000000000260000002610
:1004A0000026262F0000002F000000370000003734
:1004B000000000FF000000FF000000BF000000BFC0
:1004C0000000BF370000370000370000262600007C
:1004D0000026260000000000000000262626002638
:1004E00026262600002F002F0000000037000037CE
:1004F000000000FF000000FFFFFFFF00000000BF42
:10050000000000000000003700000026262600261C
:1005100026262600000000000000002600262626D1
:1005200026000000002F0000002F00000037000010
:100530000037000000FFFFFFFF00000000BF0000C9
:1005400000BF0000003700000037002600262626E6
:100550002600000000000000000000000026262603
:10056000002600002F00002F002F0037000000376A
:10057000000037FF000000FF000000BF000000BFC8
:100580000000BF3700003700003700262626000095
:10059000002600000000000000000000002600000F
:1005A00000000000002F00000000000037000000E5
:1005B000000000FF0000000000000000BF0000007D
:1005C00000000000003700000000000000260000CE
:1005D000000000000000000000000000000000001B
:1005E000000000000000000000000000000000000B
:1005F0000000E400000000099BEDF60000009BA451
:10060000ADBFBF00529BA4767F7FB75B9B6D777FAA
:10061000766EB70000000000000000000000005BE4
:10062000B6F6F6005BF6FFFFFFFFBFF6FFFFFFFF2A
:10063000BFBFAEFFBFFFFFFFB7AD65BFBFFFFFB7D7
:10064000B6AD65B7BFFFFFBFB7AE6EB7BFFFFFBFA9
:10065000B7B7650000000000000000F6F6EDEDAD54
:10066000A4A49BB66D6D5C526E656465656552654C
:10067000766D255C5C52536E24656E6552526E2514
:100680002524255B52772D25252524526E6E2D2598
:1006900025252500000000000000009B4900000007
:1006A000000000A49B920000000000256493490014
:1006B000000000652E9B52000000006D2565520071
:1006C0000000006D2D6552000000006E2E64520087
:1006D000000000000000000000495B000000000076
:1006E0004A5B65000000005B9B6D2D0000005B5BBA
:1006F0002D2E250000525B2E2E1C0900015B2D1CA7
:1007000001091C005C5B014A65777F4A5B1C6E7FB8
:100710007777769B77776D656E6EA4776E65656586
:100720005BA4B725255C52526DBFBF130949647F96
:10073000BFBFBF095C7F7FBFBFB7BF7F7F777F7FB2
:10074000B7BFBF77777F7F6EB7BFBF777F7F6E778B
:10075000BFBFBFB6FFFFFFBFBFB75BBFFFFFFFBF9E
:10076000BFA464BFFFFFFFBFADA47FBFFFFFFFBFFC
:10077000A4BF7FFFFFFFBFADBFBFBFFFFFFFB6BF7F
:10078000BFBF77FFFFF7BFBFBF7777FFFFFFBFBFD9
:10079000BF64526D7F6E2E2D2D256E7F766E6E6E30
:1007A0002E2565777777762E1C25247F776E251C7E
:1007B000251C1B776525251C090A5B6E6E1C0949E3
:1007C0002564645B494A6E7F645C005377BF775B46
:1007D0005C00006E255B4A000000001C1B5B0000F3
:1007E000000000245B5300000000005B5C00000080
:1007F0000000006400000000000000000000000095
:1008000000000000000000000000000000000000E8
:100810000000005B5C7FBF777677775C6D7FB77792
:100820007777775C6D7FBF777777BF5C64BFBFBF3B
:10083000BFBF7F0A5C6EBFBFBFBF760065646DBF80
:10084000BFBFBF00005B6D646DADB600000000125D
:100850005B646D777F6E6E77BFBFBF7F766D767797
:10086000BFBFBF776D6E767FBFBFBF6D6E767FBF38
:10087000B7ADF676BFBF76A4ADFFFFBFB664ADFFE0
:10088000FFFFFFB6ADBFFFFFFFFFF6ADB6AD645B88
:10089000520000FFFFBFBFAD5B64BFFFFFB6ADAD51
:1008A000BFFFBFFFF6FFFFFFFFBF64FFFFFFFFBFFC
:1008B000B6765BFFFFFFBFBF5B0000FFFFFF5C0082
:1008C000000000A400000000000000000000000084
:1008D000000000BFBF645C5C0000006E5C65490006
:1008E0000000006D5B000000000000000000000040
:1008F00000000000000000000000000000000000F8
:1009000000000000000000000000000000000000E7
:100910000000000000001C090000000000020800A8
:10092000085504085A0000F8000990000A1E320514
:100930000000FF00000000000000000000000000B8
:1009400000000000000000000000000000000000A7
:100950000000000000000000000000000000000097
:100960000000000000000000000000000000000087
:100970000000000000000000000000000000000077
:100980000000000000000000000000000000232420
:10099000000000000000002526000000000000000C
:1009A00000002526000000000000000000232400B5
:1009B0000000000000000000000000000000000037
:1009C00000000000000023240000000000000000E0
:1009D00000000000000000000000000000000025F2
:1009E0002600000000000000252500000000000097
:1009F00000000000000000000000000000000000F7
:100A0000000000000000002526000000000000009B
:100A1000000000232400000000000000000000008F
:100A2000252600000000000000000000000000007B
:100A300000000000000000000000000000000000B6
:100A400000000000000000000000000000000000A6
:100A50000000000000000000000000000000000096
:100A60000000000000000000000000000025260338
:100A70000303000000000000000000000000000070
:100A80000000000000000000000000000000000066
:100A90000000000000000000000000000000000056
:100AA0000000000000000000000000000000000046
:100AB0000000000000000000000000000000000036
:100AC0000000000003000000000000000000000023
:100AD0000000000000000000000000000000000016
:100AE0000000000000000000000000000000000006
:100AF00000000000000000000000000000000000F6
:100B000000000000000000000000000000000000E5
:100B100000000000000000000000000000000000D5
:100B200000000000000000000000000000000000C5
:100B300000000000000000000000000000000000B5
:100B400000000000000000000000000000000000A5
:100B50000000000000000000000000000000000095
:100B6000000000000000000000290000000000005C
:100B7000000000000000000000000000000202026F
:100B8000000000000000000000000000030300005F
:100B90000000000000000000000000000000000055
:100BA000290000000000000000000000000000001C
:100BB0000000000000000000000000000000000035
:100BC00000000029000000000000000A00000000F2
:100BD00000000032000000000000000000000000E3
:100BE0000000000000000000000000000000000005
:100BF000000000000000000000292929000000007A
:100C000000000000000000000000000000000000E4
:100C100000000000000000000000000000290000AB
:100C200000000000000700000000020202020200B3
:100C300000000000000000000000000000000000B4
:100C400000000000000000000000000000000000A4
:100C500000002929292929000000000000000000C7
:100C60000000000000000004000000000000000080
:100C700000000000000000270000000000000A073C
:100C80000000000000000000000000000000000064
:100C90000000000000000000000000000000000054
:100CA00000000000000000000000000000292929C9
:100CB0000000000000000000000000000000000034
:100CC00004040000290000290000290000000000A1
:100CD0000000000000000000070700000000000006
:100CE000000000000000001F2100000000000000C4
:100CF0000000272700002727000000000000000058
:100D0000320000000000000029000000000000196F
:100D10001A000000000000000004040400000000AD
:100D2000000000000000000000001D1D1D0000006C
:100D3000000A07071E1E000000000000000000005F
:100D4000002022000000000000000032000000002F
:100D50000000000000000007070707000000000077
:100D60000000070000000000001B1C010101010140
:100D70000101010101050000080000080000080051
:100D8000000601010101010101010101010101014F
:100D90000101010101010101010101010101010143
:100DA0000101010101050000000000000006010131
:100DB0000101010101010101010101010101010123
:100DC000010101010100000000000000000000001E
:100DD0000000000000000000000000000000000013
:100DE0000000000000000000000000000000000003
:100DF00000000000000000000000000000000000F3
:100E000000000000000000000000000000000000E2
:100E100000000000000000000000000000000000D2
:100E200000000000000000000000000000000000C2
:100E300000000000000000000000000000000000B2
:100E400000000000000000000000000000000000A2
:100E50000000000000000000000000000000000092
:100E60000000000000000000000000000000000082
:100E7000000000000000000000002324000000002B
:100E800000000025260000000000000000002526CC
:100E9000000000000000000000232400000000000B
:100EA0000000000000000000000000000000000042
:100EB00000002324000000000000000000000000EB
:100EC00000000000000000000000002526000000D7
:100ED0000000000025260023240000000000000080
:100EE0000000000000000000000000000000000002
:100EF0000000002526000000000000000000002384
:100F00002400000000000000000000002526000072
:100F1000000000000000000023240000000000008A
:100F200000000000000000000000000000000000C1
:100F3000002526000000000000000000000000293D
:100F40002900000000000000000000000000000078
:100F50000000000000000000002526000000000046
:100F60000000000000000000000000000000000081
:100F70000000252600000000000000000000000026
:100F80000000000000000000000000000000000061
:100F900000000000000000000029290000000000FF
:100FA0000000000000000000000000000000000041
:100FB00000320000000000000000000000000000FF
:100FC0000000000000000000000000000000000021
:100FD000000000000000040000000000000000000D
:100FE0000000000000000000000000000000000001
:100FF00000003200000000000000000000000000BF
:1010000000000000000202020202020200000000D2
:1010100000000000000000000000000000000002CE
:1010200000020000000000000000000000000000BE
:1010300004000000000000000000000000000000AC
:101040000000000000000000000707070700000084
:101050000900000000000000000000000000000087
:101060000000000000000000000000000000000080
:10107000000000000000000200000000000000006E
:101080000000000000000000000404000000000058
:101090000000000000000000000000000000000050
:1010A0000009000000000000000000000000000037
:1010B0000000000000000000000000000000000030
:1010C000000000000000000000000000000000021E
:1010D0000000000000000000000000000000000010
:1010E00000000004040000000000000000000000F8
:1010F00000000029000000000000000000000000C7
:1011000000000000000009000000000000000000D6
:1011100000000000000029000000000000000000A6
:1011200000000000000000000000000000040004B7
:101130000000000000320000000000000404040071
:101140000000272727000000000000000029000001
:101150000000000900000000000000000000000086
:101160000000000000000000000000000400002952
:1011700004290000040000000000290000290000EC
:10118000000000000004000400040000000303034A
:101190000000000000000404040000000000000043
:1011A0000000000000000029000000000000000016
:1011B0000000000000000000000000000900000026
:1011C000000000000000040000040404000004000B
:1011D0000000000000000000000000000004000407
:1011E00000040004000000000000000000000004F3
:1011F0000404040000000000000000191A000000B0
:1012000000000007070700000000000000000000C9
:1012100000000000000000001E00000000000000B0
:10122000040000000400000004000000001D000095
:101230001D00001D00000004000400040004000064
:10124000000000000000000000040404040000008E
:1012500000000000001B1C0101010105000000004E
:10126000000000000000000000000000000000007E
:10127000000006010101010101010500000000005C
:10128000000006010101010101010101010101014B
:10129000010101010101010101010101010101013E
:1012A000010101010101050000000000000000062D
:1012B000010000000000000000000000000000002D
:1012C000000000000000000000000000000000001E
:1012D000000000000000000000000000000000000E
:1012E00000000000000000000000000000000000FE
:1012F00000000000000000000000000000000000EE
:1014D0000000000000000000000000000003000009
:1014E00000000000000003030300000000000000F3
:1014F00000000000000000000000000000000000EC
:1015000000000000000000000000000000000000DB
:101510000000003200000000000000000000000099
:1015200000000000000000000000000000000000BB
:1015300000000000000000000000000000000000AB
:10154000000000000000000000000000000000009B
:10155000000000000000000000000000000000008B
:101560000000000000000000000000000004000077
:10157000000000000000000000000000000000006B
:10158000000000000000000000000000000000005B
:101590000000000000000000000000150000000036
:1015A0000000000000000000040400000000000033
:1015B000000000000000000000000000000000002B
:1015C0000000000000000404000000000000000013
:1015D000000000000000000000000000000000000B
:1015E00000000000000000000000040404000000EF
:1015F00000000000040404000000000000000000DF
:101600000000000000042727272727272727272750
:101610000400000000320000000000000000000490
:1016200004040000000000000000000000000000B2
:1016300000000000000000000000000004000000A6
:101640000000000000000000000000150000000085
:101650000000000000000000000000040000000482
:10166000000000000000000000000400000003046F
:101670000303040000000000040404040000000050
:10168000000000000000000000000000000000005A
:101690000000000000000400000000000400000042
:1016A000000000040404000000000000000000002E
:1016B0000000000000040000000400000000000022
:1016C0000000000004000000000000000000000016
:1016D00000000404040400000000000000000000FA
:1016E00000000000000000191A00000000000000C7
:1016F000041500000015040015151500000404046D
:1017000000000000150000001500000000000004AB
:1017100000000004000000000000000000000400C1
:1017200000000000000000000000000004040404A9
:1017300000000000000000000000000000000000A9
:10174000001B1C0404040404040004040404040432
:101750000404040404040404040404040404040449
:10176000040404040404000404040404040415151B
:1017700015151515151515150404040404040404A1
:101780000404040404040404040404040008000819
:10179000000404040004040404040404043E3E3E63
:1017A0003E3E3E3E3E3E3E3E3E3E3E3E3E3E3E3E59
:1017B0003E3E3E3E3E3E3E3E3E3E3E3E3E3E3E3E49
:1017C0003E3E3E3E3E3E3E3E3E3E3E3E3E3E3E3E39
:1017D0003E3E3E3E3E3E3E3E3E3E3E3E3E3E3E3E29
:1017E0003E3E3E3E3E3E3E3E3E3E3E3E3E3E3E3E19
:1017F0003E3E3E3E3E3E3E00000000000000000037
:1018000000000000000000000000000000000000D8
:1018100000000000000000000000000000000000C8
:1018200000000000000000000000000000000000B8
:1018300000000000000000000000000000000000A8
:101840000000000000000000000000000000000098
:101850000000000000000000002C2D00002C2D00D6
:1018600000002C2D0000000000000000002C2D2C9A
:101870002D000000000000002C2D000000000000E2
:101880000000000000000000000000000000000058
:101890000000000000000000000000000000000048
:1018A0000000000000000000000000000000000038
:1018B0000000002C2D00002C2D0000002C2D00031A
:1018C000030000000000002C2D2C2D000000000063
:1018D00000002C2D000000000000000000000000AF
:1018E00000000000000000000000000000000000F8
:1018F00000000000000000000000000000000000E8
:10190000000000000000000000000000002C2D007E
:10191000002C2D0000002C2D000000000000000015
:10192000002C2D2C2D000000000000002C2D0000AC
:1019300000000000000000000000000000000000A7
:101940000000000000000000000000000000000097
:101950000000000000000000000000000000000087
:10196000000000000000002C2D00002C2D000000C5
:101970002C2D0000003200000000002C2D2C2D002A
:101980000000000000002C2D0000000000000000FE
:101990000000000000000000000000000000000047
:1019A0000000000000000000000000000000000037
:1019B0002E002E0000002E002E000000000000006F
:1019C000002C2D00002C2D0029002C2D02020202DB
:1019D00000000000002C2D2C2D0003030303030046
:1019E0002C2D00000000000000000000000000009E
:1019F0000000002903290000000000000000000092
:101A0000000000000000000000002E2E2E0000004C
:101A10002E2E2E00000000000000002C2D00002CB7
:101A20002D2727272C2D0000000000000000002C8F
:101A30002D2C2D000000000000002C2D00000000C7
:101A40000000000000000000000000000000000096
:101A5000000000000000320000270000000000002D
:101A6000000000002E2E2E2E2E2E2E2E2E000000D8
:101A700000000000002C2D00002C2D0000002C2D5B
:101A80000000000000000C0D002C2D2C2D0000008B
:101A9000000000002C2D00000000000000000000ED
:101AA0000000000000000029292900000000000CAF
:101AB0000D00000000000C0D0000000000002E2EA4
:101AC0002E2E2E2E2E2E2E00000000000000002CA8
:101AD0002D27272C2D0000002C2D000000000000D9
:101AE0000C0D002C2D2C2D020202030202022C2DC3
:101AF00000000000000000000000000000000000E6
:101B00000000000000000000000C0D0000000000BC
:101B10000C0D0000000000002E2E2E2E1A2E2E2E50
:101B20002E00000000000029002C2D00002C2D00AC
:101B300000002C2D0000000000000C0D002C2D2CAE
:101B40002D000000000000002C2D0000000000000F
:101B5000000000000000000000000329032903002A
:101B60000000020C0D00000000000C0D0000000041
:101B700000002E2E2E191A1A2E2E2E000000000004
:101B80002727272C2D00002C2D0000002C2D0000D5
:101B9000000000000C0D002C2D2C2D00000000007A
:101BA00000002C2D00000000000000000C0D0000C3
:101BB000000000000000000000000002020C0D0008
:101BC000000000000C0D0000000000002E2E2E1959
:101BD0001A1A2E2E2E00000000000000002A2B00F2
:101BE000002A2B0000002A2B0000000000000C0D32
:101BF000002A2B2A2B000000000000002A2B0000E6
:101C00000000001E1E1E0C0D1E1E00000000000025
:101C1000000000000202020C0D00000000000C0D8C
:101C20000000000000002E2E2E191A1A2E2E2E0152
:101C30000101050000000006050000060500000087
:101C4000060500000000000601010101010101017B
:101C5000010101010101010101050006010101016C
:101C6000010101050006010101010101010101015C
:101C70000101050000000000060101010101010150
:101C8000010101010101010101000000000000004B
:101C90000000000000000000000000000000000044
:101CA0000000000000000000000000000000000034
:101CB0000000000000000000000000000000000024
:101CC0000000000000000000000000000000000014
:101CD0000000000000000000000000000000000004
:101CE00000000000000000000000000000000000F4
:101CF00000000000000000000000000000000000E4
:101D000000000000000000000000000000000000D3
:101D100000000000000000000000000000000000C3
:101D200000000000000000000000000000000000B3
:101D300000000000000000000000000000000000A3
:101D4000000000002C2D00002C2D0000002C2D0088
:101D500000000000002C2D00000300002C2D0000CE
:101D6000000000002C2D2C2D000000000000002C95
:101D70002D00000000000000000000000000000036
:101D800000000000002C2D00000000002C2D2C2D48
:101D90002C2D2C2D000000000000000000002C2D38
:101DA00000002C2D0000002C2D0000000000002C55
:101DB0002D00000000002C2D0000000000002C2D44
:101DC0002C2D000000000000002C2D000000000061
:101DD0000000000000000000000000000000002CD7
:101DE0002D00000000002C2D2C2D2C2D2C2D000062
:101DF00000000000000000002C2D00002C2D000031
:101E0000002C2D0000000300002C2D00000000001D
:101E10002C2D0000000000002C2D2C2D00000000B7
:101E20000000002C2D000000000000000000000059
:101E30000000000000000000002C2D000000000049
:101E40002C2D2C2D2C2D2C2D00000000000000002E
:101E500000002C2D00002C2D0000002C2D00000077
:101E60000000002C2D27272727272C2D00000000FD
:101E700000002C2D2C2D000000000000002C2D0057
:101E80000000000000000000000000000000000052
:101E90000000002C2D00000000002C2D2C2D2C2DDE
:101EA0002C2D000000000000000000002C2D000080
:101EB0002C2D0000002C2D0000000000002C2D0017
:101EC000000000002C2D0000000000002C2D2C2D07
:101ED000000000000000002C2D00000000000000A9
:101EE000000000000000000000000000002C2D0099
:101EF000000000002C2D2C2D2C2D2C2D000000007E
:101F00000000000000002C2D00002C2D0C0D002CDA
:101F10002D2727272727272C2D00000000002C2DF8
:101F20000000000000002C2D2C2D000000000000FF
:101F3000002C2D000000000000000202020302023B
:101F4000030202000000002C2D00000000002C2DD8
:101F50002C2D2C2D2C2D0000000000000000000076
:101F60002C2D00002C2D0C0D002C2D00000000004D
:101F7000002C2D00000000002C2D000000000000AF
:101F80002C2D2C2D000000000000002C2D00000046
:101F90000000000000000000000000000000000041
:101FA000002C2D00000000002C2D2C2D2C2D2C2D74
:101FB000000000000000000000002C2D0C0D2C2D56
:101FC0000C0D002C2D0000000000002C2D00000046
:101FD00000002C2D0000000000002C2D2C2D0000F6
:101FE00000000000002C2D00000000000000000098
:101FF00000000000000000000000002C2D00000088
:1020000000002C2D2C2D2C2D2C2D0000000000006C
:10201000000000002C2D0C0D2C2D0C0D002C2D0083
:1020200000000000002C2D00000000002C2D0000FE
:10203000000000002C2D2C2D000000000000002CC2
:102040002D0000020202020000000000000000005B
:1020500000000000002C2D00000000002C2D2C2D75
:102060002C2D2C2D00000000000000000C0D2C2D4C
:102070000C0D2C2D0C0D002C2D0000000000002C50
:102080002D00000000002C2D0000000000002C2D71
:102090002C2D000000000000000C0D0000000000CE
:1020A0000000020202020202020202000000002CF2
:1020B0002D00000000002C2D2C2D2C2D2C2D001976
:1020C0001A00000000000C0D2A2B0C0D2A2B0C0D01
:1020D000002A2B0000000000002A2B000000000056
:1020E0002A2B0000000000002A2B2A2B1E1E1E0097
:1020F0000000000C0D0000000000000000000000C7
:10210000000000000000001E1E2A2B1E0000000020
:102110002A2B2A2B2A2B2A2B001B1C01010101012F
:102120000101010101010101010500060500000096
:102130000000000605000000000006050000000089
:102140000000060101010101010105000601050071
:10215000000000000000000000000000000000007F
:102160000006010101010105000006010101010154
:10217000010101010100000000000000000000005A
:10218000000000000000000000000000000000004F
:10219000000000000000000000000000000000003F
:1021A000000000000000000000000000000000002F
:1021B000000000000000000000000000000000001F
:1021C000000000000000000000000000000000000F
:1021D00000000000000000000000000000000000FF
:1021E00000000000000000000000000000000000EF
:1021F00000000000000000000000000000000000DF
:1022000000000000000000000000000000000000CE
:1022100000000000000000000000000000000000BE
:1022200000000000000000000000002C2D2C2D00FC
:102230002C2D2C2D2C2D00002C2D2C2D00002C2D88
:102240000000002C2D2C2D2C2D002C2D002C2D00D1
:102250002C2D002C2D2C2D00000000000000000073
:10226000002C2D002C2D2C2D00002C2D00002C2DB1
:10227000000000000000002C2D0000000000000005
:1022800000000000002C2D2C2D002C2D2C2D2C2D91
:1022900000002C2D2C2D00002C2D0000002C2D2CAE
:1022A0002D2C2D002C2D002C2D002C2D002C2D2C18
:1022B0002D000000000000000000002C2D002C2D3F
:1022C0002C2D00002C2D00002C2D00000000000003
:1022D000002C2D0000000000000000000000002C79
:1022E0002D2C2D002C2D2C2D2C2D00002C2D2C2DAB
:1022F00000002C2D0000002C2D2C2D2C2D002C2D21
:10230000002C2D002C2D002C2D2C2D000000000069
:1023100000000000002C2D002C2D2C2D00002C2D59
:1023200000002C2D000000000000002C2D000000FB
:102330000000000000000000002C2D2C2D002C2D92
:102340002C2D2C2D00002C2D2C2D00002C2D0000D0
:10235000002C2D2C2D2C2D002C2D002C2D002C2D67
:10236000002C2D2C2D000000000000000000002C8F
:102370002D002C2D2C2D00002C2D00002C2D0000CC
:1023800000000000002C2D0C0D00000000000000DB
:102390000000002C2D2C2D002C2D2C2D2C2D000080
:1023A0002C2D2C2D00002C2D0000002C2D2C2D2C44
:1023B0002D002C2D002C2D002C2D002C2D2C2D0033
:1023C0000000000000000000002C2D002C2D2C2D02
:1023D00000002C2D00002C2D000000000000002C1F
:1023E0002D0C0D000000000000000000002C2D2C22
:1023F0002D002C2D2C2D2C2D00032C2D2C2D0000F0
:102400002C2D0000002C2D2C2D2C2D002C2D002CE3
:102410002D002C2D002C2D2C2D000000020202027C
:102420000000002C2D002C2D2C2D00002C2D000048
:102430002C2D000000000000002C2D0C0D000000D1
:10244000000000000000002C2D2C2D002C2D2C2D28
:102450002C2D00002C2D2C2D00002C2D0000002CEC
:102460002D2C2D2C2D002C2D002C2D002C2D002C56
:102470002D2C2D000000000000000000002C2D007D
:102480002C2D2C2D00002C2D00002C2D00000000E8
:10249000000C0D2C2D0C0D000000000000000000B1
:1024A000002C2D2C2D002C2D2C2D2C2D00002C2D16
:1024B0002C2D00002C2D2929292C2D2C2D2C2D00E4
:1024C0000C0D002C2D002C2D002C2D2C2D0000008F
:1024D000000000000000002C2D002C2D2C2D0000F1
:1024E0002C2D00002C2D00000000000C0D2C2D0CBC
:1024F0000D000000000400000000002C2D2C2D0019
:102500002C2D2C2D2C2D00032C2D2C2D03002C2DAF
:102510000000002C2D2C2D2C2D000C0D002C2D003E
:102520002C2D002C2D2C2D03030302020203030388
:10253000002C2D002C2D2C2D00002C2D00002C2DDE
:102540000C0D0000000C0D2C2D0C0D0000000000E7
:1025500000000000002C2D2C2D002C2D2C2D2C2DBE
:1025600000002C2D2C2D00002C2D0032002C2D2CA9
:102570002D2C2D000C0D002C2D002C2D002C2D2C85
:102580002D000000000000000000002C2D002C2D6C
:102590002C2D00002C2D0C0D2C2D0C0D0000000CF2
:1025A0000D2C2D0C0D000004000000191A00002A4B
:1025B0002B2A2B002A2B2A2B2A2B00002A2B2A2BF2
:1025C00000002A2B0002002A2B2A2B2A2B000C0D9C
:1025D000002A2B002A2B002A2B2A2B0000000000A7
:1025E00000000000002A2B002A2B2A2B0C0D2A2B7E
:1025F0000C0D2A2B0C0D0000000C0D2A2B0C0D00CD
:1026000000000000001B1C0101010101010101018A
:1026100001010101010101010101010101010101AA
:102620000101010101010101010101010101010596
:102630000006010101010105000605000601010176
:10264000010101010101010101010101010101017A
:102650000101010101010101050000000000000667
:102660000100000000000000000000000000000069
:10267000000000000000000000000000000000005A
:10268000000000000000000000000000000000004A
:10269000000000000000000000000000000000003A
:1026A000000000000000000000000000000000002A
:1026B000000000000000000000000000000000001A
:1026C000000000000000000000000000000000000A
:1026D00000000000000000000000000000000000FA
:1026E00000000000000000000000000000000000EA
:1026F00000000000000000000000000000000000DA
:1027000000000000000000000000000000000000C9
:102710000000000000000023240000000000000072
:10272000000000000000000000002526000000005E
:102730000000000000232400000000000000000052
:102740000000000000000000000000000000232442
:102750000000000000000000000000000000000079
:10276000000000000000002526000000000000001E
:1027700000252600000000232400000000000000C7
:1027800000000029000000000000000000000025FB
:1027900026000000000000000000002324000000CC
:1027A00000000000000000002526000000000000DE
:1027B00000000000000000000000320000000000E7
:1027C0000000000000000000000000000000000009
:1027D0000025260000000000000000002929290033
:1027E00000000000000000000000000000000000E9
:1027F000000000000025260000000000000000008E
:1028000000000000000000000000000000000000C8
:102810000007070707000000000000000000002379
:102820002400000000000000000000000000000084
:1028300000000000002929292929000000000000CB
:102840000707070000000000000000000000000073
:102850000000000000000000000000000000000078
:102860000000000000000000000000000000000068
:10287000000000000000000000252600000000000D
:102880000000000000000000000000000000000741
:10289000070707070000000000000000000000001C
:1028A0000000000000000000000000000000000028
:1028B0000000000000000000000000000000000018
:1028C0000000000000000000000000000000000008
:1028D00000000000000000000000000000000000F8
:1028E00000000000000000000000000000000000E8
:1028F00007070700000000000000000000000000C3
:1029000000000000000000000000000707000000B9
:1029100000030300000000000000000000070000AA
:10292000000000002900000000000000000000007E
:102930000000000000000000000000000000000097
:102940000000000000000000000000000000000087
:102950000000000000000000000000000000000077
:102960000000000000000000000000000000000067
:102970000000000000000707000000000000290020
:102980000000000000000000000000000000000047
:1029900000000000000000000032000000070707F0
:1029A0000707000000000000000000000C0D2727B2
:1029B000272727272727272727270C0D0000000078
:1029C0000000000000000000000000000000000700
:1029D00007070000000000002900000000000000C0
:1029E00000000000000000000000000000000000E7
:1029F00000070707000000000000000000000000C2
:102A00000000000000000C0D0000000000000000AD
:102A1000000000000C0D0000000000000004040095
:102A20000004040000000000070707070000000082
:102A3000000029000000000000000000000000006D
:102A40000000000000000000000000000000000086
:102A50000000000000000000000000000000000076
:102A60000C0D0000000000000000000000000C0D34
:102A70000000000000000000000000000000000056
:102A800000070707070700000000000029000000FA
:102A900000000000000000191A0000000000000003
:102AA0000707070000000000000000000000000011
:102AB000000000000000000000000C0D00000000FD
:102AC00000000000000000000C0D000000000000ED
:102AD00000000000000000000000070707070707CC
:102AE0000000000000002900000000290029002942
:102AF000001B1C0101010500000000000000000097
:102B000000000000000000000000000000000000C5
:102B100000000000060500000000000000000000AA
:102B2000000006050000000006010101010101018D
:102B3000010101010101010101010105000800007D
:102B4000060101010105000800080006010000005F
:102B50000000000000000000000000000000000075
:102B60000000000000000000000000000000000065
:102B70000000000000000000000000000000000055
:102B80000000000000000000000000000000000045
:102B90000000000000000000000000000000000035
:102BA0000000000000000000000000000000000025
:102BB0000000000000000000000000000000000015
:102BC0000000000000000000000000000000000005
:102BD00000000000000000000000000000000000F5
:102BE00000000000000000000000000000000000E5
:102BF00000000000000000000000000000000000D5
:102C0000000023240000000000000000000000007D
:102C10000000000000002526000000000000002841
:102C20002828152800000000000000000000000017
:102C3000000000000000000000002324000000004D
:102C4000000000000000000000000000150000006F
:102C500000000025260000000000000025260000DE
:102C6000000000002324000000000000000000001D
:102C7000000000000000000000282828152800009F
:102C800000000000000000232400000000000000FD
:102C900000000000252600000000000000000000E9
:102CA000000000000000150000000000000000000F
:102CB00000000000000000000000000000002526C9
:102CC0000000000000000000000000000000000004
:102CD0000000282828281528000000000000000017
:102CE0000025260000000000000000000000000099
:102CF00000000000000000000000000000000000D4
:102D00001500000000000000000000232400000067
:102D100000000000000000000000000000000000B3
:102D20000000000000000000000000002828282803
:102D30001528000000000000000000000000000056
:102D40000000000000000000000000000000000083
:102D5000000000000000000000001500000000005E
:102D60000000000000252600000000000000000018
:102D70000000000000292900000000000000000001
:102D8000000000000028282828281528000000003E
:102D90000000000000000000000000000000000033
:102DA0000000000000000000000000000000000023
:102DB00000000000150000000000000000000000FE
:102DC00000000000000000000000000000000029DA
:102DD000290000030202000000000000000000289B
:102DE00028282828152800000000292900000000B4
:102DF00000000000000000000000000202020302C8
:102E000002020000000000000000000000001500A9
:102E100000000000000000000000000000000000B2
:102E20000000000000000000000707000000000094
:102E30000000000000000000282828280428152889
:102E4000000000000202000000000000000000007E
:102E50000000000000000000000000000000000072
:102E6000000000000000003215000000000000001B
:102E70000000000000191A0000000000000000001F
:102E80000000000000000000000032000000000010
:102E9000000028282804042815280000000000004D
:102EA00000000000000000000000000000000032F0
:102EB000000000000000000000000000000004040A
:102EC0000404150000000000000000000000001BCA
:102ED0001C000003000000000000070700000000C5
:102EE000030203030200000000000000282804047D
:102EF0000428152800000000000000000000000069
:102F00000000000029290000000202020302020260
:102F10000000000000000004040404041500000088
:102F20000000000000000000000707000000000093
:102F30000000000000000000000000000000000091
:102F400000000000000028040404042815280002E2
:102F50000202020202000000000000000000292915
:102F60000000000000000000000000000000000061
:102F70000404040404041500000000000000000024
:102F80000000070707000000000007070700000017
:102F90000000000000000000000000000000040429
:102FA00004040404042815280000000000000000A8
:102FB00000000000000000002929000000000000BF
:102FC00000000000000000000004040404040404E5
:102FD00015000000000000000000000707070701BF
:102FE00001010500000000000000000000060101D2
:102FF00001010101010101010101010101010101C1
:10300000010500060101010500060101010101059C
:103010000006050006010101010101010101010194
:10302000010101010101010101051500080006016E
:103030000101010101010101010000000000000087
:103040000000000000000000000000000000000080
:103050000000000000000000000000000000000070
:103060000000000000000000000000000000000060
:103070000000000000000000000000000000000050
:103080000000000000000000000000000000000040
:103090000000000000000000000000000000000030
:1030A0000000000000000000000000000000000020
:1030B0000000000000000000000000000000000010
:1030C0000000000000000000000000000000000000
:1030D00000000000000000000000000000000000F0
:1030E00000000000000000000000000000000023BD
:1030F00024000000000000000000000000000000AC
:10310000000025260000000000000000002324002D
:10311000000000000000000000281528000000004A
:103120000000000000002324000000000000000058
:10313000000000000000000000000000000000256A
:1031400026000000000000000025260000000023EB
:10315000240000000000000000000000000000004B
:103160000000000000000025260000000000000014
:1031700000000028152800000000000000000000EA
:1031800025260000000000000000000000000000F4
:10319000000000000000000000000000000000002F
:1031A00000000000000000000025260000000000D4
:1031B000000000000000000000000000000000000F
:1031C000000000000000000000000000002815289A
:1031D00000000000000000000000000000000000EF
:1031E00000000000000000000000000000000000DF
:1031F0000000000000000023240000000000000088
:1032000000000000000000000000000000000000BE
:1032100000000000000000000000000000000000AE
:103220000000000000000028152800000000000039
:10323000000000000000000000000000000000008E
:10324000000000000000000000000000000000007E
:103250000025260000000000000000000000000023
:10326000000000000000000000000000000000005E
:10327000000000000000000000000000000000004E
:1032800000281528000000000000000000000000D9
:10329000000000000000000000000000000000002E
:1032A000000000000000000000000000000000001E
:1032B00000000000000000000000000032000203D7
:1032C00002000000000000000000000000000000FC
:1032D0000000000000002900000028281528280010
:1032E00000000000000302020303020000000000CF
:1032F00000000000000400000000000029000000A1
:1033000000000000000000000000000000000000BD
:1033100000000000000000000000000000000000AD
:10332000000000000000000000000000000000029B
:1033300002020000282815282800000000000000D4
:103340000000000000000000000000000000040475
:103350000000000000290000000000000000000044
:10336000000000000000000000000000000000005D
:10337000000000000000000000000000000000004D
:1033800000000000000000000000000000002828ED
:1033900015282800000000000000000000000000C8
:1033A00000000000000000040404000000002900E8
:1033B000000000000000000000000000000000000D
:1033C00000000000000000000000000203020303F0
:1033D00002000000000000000000000000000000EB
:1033E00000000000000000282828152828280000D8
:1033F00000000003020203000200000000000000C1
:103400000404040400000029000000000000000083
:1034100000000000000000000000000000000000AC
:10342000000000000000000000000000000000009C
:10343000000000000000000000000000000000008C
:103440000028282815282828000000000000000077
:10345000000000000000000000000404040400005C
:103460000000000000000000000000000000001943
:103470001A00000000000000000000000000000032
:10348000000000000000000000000000000000003C
:103490000000000000000000000000282828152877
:1034A00028280000000000000000000000000000CC
:1034B00000000000040404040000000000000000FC
:1034C0000000000000000000001B1C0101010101C0
:1034D00001010101010101010101010101010101DC
:1034E00001010101010101010101010101010101CC
:1034F00001010105000601010101010500060500A9
:1035000006010101010101010101010101010101A6
:103510000101010500080008000601010101010187
:103520000101010101000000000000000000000096
:10353000000000000000000000000000000000008B
:10354000000000000000000000000000000000007B
:10355000000000000000000000000000000000006B
:10356000000000000000000000000000000000005B
:10357000000000000000000000000000000000004B
:1035800000000000000000000000232400001500DF
:10359000000000000000000000000000000000002B
:1035A00000000028152800000000000000000000B6
:1035B0000000000000000000000000000028282893
:1035C0001515282828000000000000000000002336
:1035D00024000000000000000000000000000004C3
:1035E0000404000025260000150000000000000073
:1035F0000000000000000000000000000028152866
:103600000000000000000000000000002300000097
:103610000000000000000028282815152828280090
:10362000000000000000000000252600000000004F
:10363000000000000000000000040000040004007E
:103640000004150400000000040000000032000027
:103650000000000000000028152800000000000005
:10366000000000000000000000000000000000005A
:103670002828282815152828282800000023240099
:10368000000000000000000000000000000000003A
:1036900000000004000004000400000415040400FD
:1036A0000000040000000000000000000000000016
:1036B00000281528000000000000000000000000A5
:1036C0000000000000000000000028282828151530
:1036D00028282828000000252600000000000000FF
:1036E000000000232400000000000000000400048B
:1036F00000000400000415040004000004000000A1
:103700000000000000000000000000281528000054
:1037100000000000000000000000000000000000A9
:1037200000000028282828281515282828282800DF
:10373000000000000000000000000000002526003E
:103740000000000000000004040000000400000469
:103750001504000004000400000000000000000048
:1037600000000000002815280000000000000000F4
:1037700000000000000000000000000000282828D1
:1037800028281515282828282800000000000000F7
:103790000000000000000000000000000000000029
:1037A00000040004000004000004150400000004EC
:1037B00004000000000000000000000000000028DD
:1037C00015280000000000000000000000000000BC
:1037D000000000000000282828282828151528287F
:1037E0002828282800000000000000000000000039
:1037F00000000000000000000000000400000400C1
:103800000404040415040000000004000003000088
:103810000000000000000003002815280000000040
:103820000300000000000000000000000000000095
:10383000282828282828151528282828282800007E
:103840000000000000000000000000000000000078
:103850000000000000000000000000000000150053
:103860000000000000000000000000000000000058
:1038700000000028152800000000000000000000E3
:103880000000000000000000002828282828282820
:1038900015152828282828282800000000000000E6
:1038A0000000000000000000000000000000000018
:1038B00000000000000000001500000000000000F3
:1038C0000000000000000000000000000028152893
:1038D00000000000000000000000000000000000E8
:1038E00000000028282828282828151528282828F6
:1038F0002828280000000000000000000000000050
:1039000000000000000000000000000000000000B7
:103910000000150000000000000000000000000092
:103920000000000000000028152800000000000032
:10393000000000000000000000000000002828280F
:103940002828282815152828282828282800000095
:103950000000000000000000000000191A00000034
:103960000000000000000000000000001500000042
:103970000000000000000000000000000000000047
:1039800000281528000000000000000000000000D2
:1039900000000000000000282828282828281515E5
:1039A000282828282828282929292900000000005B
:1039B00000000000001B1C010101010101010101C7
:1039C00001010101010101010101010101010101E7
:1039D00001010101010101050006010101010101CF
:1039E00001050006010101010101050006050006AF
:1039F00001010101010101010101010101010101B7
:103A000001010101010101010101010101010101A6
:103A100001000000000000000000000000000000A5
:103A20000000000000000000000000000000000096
:103A30000000000000000000000000000000000086
:103A40000000000000000000000000000000000076
:103A50000000000000000000000000000000000066
:103A6000000000000000000000000000C00000B0E6
:103A7000077200077C0090246E14246E0B246E15D0
:103A8000286E0A2B6E15296E15296E0A296E152DC2
:103A90006E0A306E15246E15246E0B246E14286E7B
:103AA0000B2B6E15296E15296E0A296E152D6E0ABF
:103AB000306E15246E15246E0A246E15286E0B2B9D
:103AC0006E15296E14296E0B296E152D6E0A306E37
:103AD00015296E15296E0A296E152D6E0B306E1480
:103AE000296E15296E0B296E152D6E0A306E152460
:103AF0006E15246E0A246E15346E00286E0A3B6E15
:103B0000002B6E153C6E00296E153C6E00296E0B65
:103B1000296E14346E002D6E0B306E15246E152434
:103B20006E0A246E15346E00286E0A3B6E002B6EF2
:103B3000153C6E00296E153C6E00296E0A296E1523
:103B4000346E002D6E0B306E15246E14246E0B2413
:103B50006E15346E00286E0A3B6E002B6E153C6E9F
:103B600000296E153C6E00296E0A296E15346E0010
:103B70002D6E0A306E153C6E00296E153C6E0029C4
:103B80006E0B296E14346E002D6E0B326E00306E8B
:103B9000153C6E00296E153C6E00296E0A296E15C3
:103BA000346E002D6E0A306E15246E15246E0A24B4
:103BB0006E15286E0B2B6E15296E14296E0B296E4F
:103BC000152D6E0A306E15246E15246E0A246E159E
:103BD000286E0B2B6E14296E15296E0B296E152D70
:103BE0006E0A306E15246E15246E0A246E15286E2A
:103BF0000A2B6E15296E15296E0B296E142D6E0B6E
:103C0000306E15296E15296E0A296E152D6E0A3033
:103C10006E15296E15296E0A296E152D6E0B306EE4
:103C200015246E14246E0B246E15286E0A2B6E1547
:103C3000296E15296E0A296E152D6E0A306E15240F
:103C40006E15246E0B246E14286E0B2B6E15296EC8
:103C500015296E0A296E152D6E0A306E15246E1503
:103C6000246E0A246E15286E0B2B6E15296E1429EE
:103C70006E0B296E152D6E0A306E15296E15296E84
:103C80000A296E152D6E0B306E14296E15296E0BD8
:103C9000296E152D6E0A306E15246E15246E0A24B9
:103CA0006E15246E0A246E0B246E0A246E15246E83
:103CB0000B246E34246E15246E0A246E15286E0AA9
:103CC000286E0B286E0A2B6E15296E0A266E152893
:103CD0006E0B266E15246E14246E0B246E15286E42
:103CE0000A286E0B286E0A2B6E15296E0A266E1591
:103CF000286E0A266E15246E15246E0B246E142869
:103D00006E0B286E0A286E0B2B6E15296E0A266E16
:103D100015286E0A266E152B6E15296E0A266E154D
:103D2000286E0B266E152B6E14296E0B266E152829
:103D30006E0A266E15246E15246E0A246E15286EE2
:103D40000B286E0A286E0A2B6E15296E0B266E152F
:103D5000286E0A266E15246E15246E0A246E152808
:103D60006E0A286E0B286E0A2B6E15296E0B266EB6
:103D700014286E0B266E15246E15246E0A246E15FB
:103D8000286E0A286E0B286E0A2B6E15296E0A26DD
:103D90006E15286E0B266E152B6E14296E0B266E73
:103DA00015286E0A266E152B6E15296E0A266E15BD
:103DB000286E0B266E14246E15246E0B246E1428A8
:103DC0006E0B2B6E15296E15296E0A296E152D6E38
:103DD0000A306E15246E15246E0A246E15286E0B9B
:103DE0002B6E15296E14296E0B296E152D6E0A3057
:103DF0006E15246E15246E0A246E15286E0B2B6E1C
:103E000014296E15296E0B296E152D6E0A306E154C
:103E1000296E15296E0A296E152D6E0A306E152928
:103E20006E15296E0B296E142D6E0B306E15246ED7
:103E300015246E0A246E15286E0A2B6E15296E1530
:103E4000296E0A296E152D6E0B306E15246E142402
:103E50006E0B246E15286E0A2B6E15296E15296EB1
:103E60000A296E152D6E0B306E14246E15246E0B00
:103E7000246E14286E0B2B6E15296E15296E0A29D7
:103E80006E152D6E0A306E15296E15296E0A296E73
:103E9000152D6E0B306E15296E14296E0B296E15BB
:103EA0002D6E0A306E15246E15246E0A246E1524AC
:103EB0006E0B246E0A246E0A246E15246E0B246E7B
:103EC0000AFF2F000000002040000000000000005A
:103ED0002040000000000000002040000000000022
:103EE0000000204000000000000000D23F00000061
:103EF00000000000C43F00000000000000AA3F00D6
:103F0000000000000000963F000000000000007F5D
:103F10003F00000000000000623F000000000000C1
:103F200000273F0000000000020300078000084C4B
:103F300002040A0204080204060204040204020045
:103F40000838020305020402020305020305020405
:103F5000020203050000F804030504040504030538
:103F600000FF0002010007800000FD00082D05048D
:103F7000050204010504050204020A050000FF0011
:103F80000780000202000840030304020304020445
:103F90000802050000FF000202000790020306026B
:103FA00003020103010000F600FF0002040000FC10
:103FB00003085A03086003085A03086003085A01FB
:103FC000050000FF0002060007400008280000F07E
:103FD00000FF0002060008320007700000FC040326
:103FE00001040301030301030301030301030301AC
:103FF000030301030301030301030301010301019F
:10400000030101050000FF0001010007900000E22C
:1040100008050000FF0002020106000100E000FFA9
:104020000002060007400000F600FF000204000046
:10403000DD00FFFEFEFEFEFEFE0000FEFEFEFE00B8
:10404000003F3FFEFEFE003F3F3F3FFEFE003F3F82
:104050003F3F3FFE003F3F3F3F3F3FFE003F3F3F70
:10406000000000003F3F3F3F3F3F3F003F3F3F3F9B
:104070003F3F3F0000FEFEFEFEFEFE3F3F0000FE13
:10408000FEFEFE3F3F3F3F00FEFEFE3F3F3F3F3F05
:1040900000FEFE3F3F3F3F3F3F00FE003F3F3F3FB0
:1040A0003F00FE3F3F3F3F3F3F3F003F3F3F3F3FDF
:1040B0003F3F00FEFEFEFEFEFE0000FEFEFEFE0096
:1040C000003F3FFEFEFE003F3F3F3FFEFE003F3F02
:1040D0003F3F3FFE003F3F3F3F3F00FE003F3F3F2F
:1040E0003F0000003F3F3F3F3F3F3F003F3F3F3FDC
:1040F0003F3F3F0000FEFEFEFEFEFE3F3F0000FE93
:10410000FEFEFE3F3F3F3F00FEFEFE3F3F3F3F3F84
:1041100000FEFE003F3F3F3F3F00FE3F3F3F3F006E
:104120000000FE3F3F0000FEFEFEFE0000FEFEFE21
:10413000FEFEFEFEFEFEFEFEFE0000FEFEFEFE0099
:10414000003F3FFEFEFE003F3F3F3FFEFE003F3F81
:104150003F3F3FFE003F3F3F3F3F00FE003F3F3FAE
:104160003F0000003F3F3F3F3F3F3F003F3F3F3F5B
:104170003F3F000000FEFEFEFEFEFE3F3F0000FE51
:10418000FEFEFE3F3F3F3F00FEFEFE003F3F00FEC3
:10419000FEFEFE003F00FEFEFEFEFE3F00FEFEFEB7
:1041A000FEFEFE00FEFEFEFEFEFEFEFEFEFEFEFE2D
:1041B000FEFEFEFEFEFEFEFEFEFE07FEFEFEFEFE16
:1041C000070707FEFEFEFE07070707FEFEFE0707BE
:1041D000070707FEFE070707FFFF07FEFE0707FFAB
:1041E000FFE0E0FEFE0707FFFFE0E0FE070707FF36
:1041F000FFFFFF07FEFEFEFEFEFEFE070707FEFEB8
:10420000FEFEFE07070707FEFEFEFE07070707077D
:10421000FEFEFE070707FFFF07FEFE0707FFFFE0A2
:10422000E0FEFE0707FFFFE0E0FEFE0707FFFFFFDF
:10423000FF07FEFEFEFEFEFEFEFEC9FEFEFEFEFEC9
:10424000C9C9C9FEFEFEFEC9C9C9C9FEFEFEC9C96B
:10425000C9C9C9FEFEC9C9C9C9C9C9FEFEC9C9C9FA
:10426000C9C9C9FEFEC9C9C9FFFFC9FEC9C9C9C9B3
:10427000FFFFC9C9FEFEFEFEFEFEFEC9C9C9FEFE65
:10428000FEFEFEC9C9C9C9FEFEFEFEC9C9C9C9C92B
:10429000FEFEFEC9C9C9C9C9C9FEFEC9C9C9C9C985
:1042A000C9FEFEC9FFFFC9C9C9FEFEC9FFFFC9C9D2
:1042B000C9C9FEFEFEFEFEFEFE2A2AFEFEFEFEFE30
:1042C000FEFE2AFEFEFE2A2A2A2A2AFEFE052A2AA7
:1042D0002A2A2AFEFE050707072A2AFE05070707DE
:1042E0000707070505070707FFFF0705050707FF7E
:1042F000FFE0E02AFEFEFEFEFEFEFE2AFEFEFEFEC1
:10430000FEFEFE2A2A2A2A2AFEFEFE2A2A2A2A2A15
:1043100007FEFE2A2A07070707FEFE07070707070B
:104320000707FE070707FFFF0707070707FFFFE06D
:10433000E00707FEFEFEFEFEFEFECFFEFEFEFEFED8
:10434000CFCFCFFEFEFEFECFCFCFCFFEFEFECFCF34
:10435000CFCFCFFEFECFCFCFFFFFCFFEFECFCFFF21
:10436000FFE0E0FEFECFCFFFFFE0E0FECFCFCFFFCC
:10437000FFFFFFCFFEFEFEFEFEFEFECFCFCFFEFE16
:10438000FEFEFECFCFCFCFFEFEFEFECFCFCFCFCFF4
:10439000FEFEFECFCFCFFFFFCFFEFECFCFFFFFE071
:1043A000E0FEFECFCFFFFFE0E0FEFECFCFFFFFFF3E
:1043B000FFCFFEFEFEFEFEFEFEFEFEFEFEFEFEFE4B
:1043C000FEFEFEFEFEFEFEFEFEFEFEFEFEFEFEFE0D
:1043D000FEFEFEFEFEFEFEFEFEFEFEFEFEFEFEFEFD
:1043E000FEFEFEFEFEFEFEFEFEFEFEFEFEFEFEFEED
:1043F000FEFEFE003F3F3F3F3F3F00003F3F3F3F4D
:104400003F3F3FFE003F3F3F3F3F3FFE003F3F3FBC
:104410003F3F3FFEFE003F3F3F3F3FFEFEFE003F6F
:104420003F3F3FFEFEFEFE00003F3FFEFEFEFEFE63
:10443000FE000000000000000000003F3F3F3F3F43
:104440003F3F003F3F3F3F3F3F00FE3F3F3F3F3F3B
:104450003F00FE3F3F3F3F3F00FEFE3F3F3F3F00EC
:10446000FEFEFE3F3F0000FEFEFEFE0000FEFEFEE2
:10447000FEFEFEFEFEFEFEFEFEFEFE0000FEFEFE58
:10448000FEFEFE3F3F0000FEFEFEFE3F3F3F3F00C0
:104490000000FE3F3F3F3F3F3F00FE3F3F3F3F3F6B
:1044A00000FEFE3F3F3F0000FEFEFE000000FEFE5D
:1044B000FEFEFEFEFEFEFEFEFEFEFE00FEFEFEFE1A
:1044C000FEFEFE3F00FEFEFEFEFEFE3F3F00FEFE45
:1044D000FEFEFE3F3F3F00FEFEFEFE3F3F3F3F0031
:1044E000FEFEFE3F3F0000FEFEFEFE0000FEFEFE62
:1044F000FEFEFEFE07070707FFFF07FE0707070789
:10450000070707FE07070707070707FE070707074D
:10451000070707FE07070707070707FE070707073D
:10452000070707FE0707FE070707FEFE07FEFEFE5A
:104530000707FE070707FFFF0707FE07070707072D
:104540000707FE07070707070707FE07070707070D
:104550000707FE07070707070707FE0707070707FD
:104560000707FEFE070707FE0707FEFE0707FEFE1A
:10457000FE07FEFEC9C9C9C9C9C9C9FEC9C9C9C999
:10458000C9C9C9FEC9C9C9C9C9C9C9FEC9C9FFFFC5
:10459000C9C9FFFEC9FFC9C9FFFFC9FEC9C9C9C949
:1045A000C9C9C9FEC9C9FEC9C9C9FEFEC9FEFEFE08
:1045B000C9C9FEC9C9C9C9C9C9C9FEC9C9C9C9C901
:1045C000C9C9FEC9C9C9C9C9C9C9FEFFC9C9FFFF4F
:1045D000C9C9FEC9FFFFC9C9FFC9FEC9C9C9C9C93F
:1045E000C9C9FEFEC9C9C9FEC9C9FEFEC9C9FEFEC8
:1045F000FEC9FE05050707FFFFE0E0FE050507FF12
:10460000FFFFFFFEFE050707FFFF07FEFE0505078C
:10461000070707FEFEFE05050707FFFEFEFE050570
:10462000050707FEFEFEFEFEFE0505FEFEFEFEFE83
:10463000FE05050707FFFFE0E007070707FFFFFF8D
:10464000FF07FE070707FFFF07FEFE07070707072D
:1046500007FEFEFFFF070707FEFEFE070707070727
:10466000FEFEFE0707FEFEFEFEFEFE0507FEFEFE48
:10467000FEFEFEFECFCFCFCFFFFFCFFECFCFCFCFFF
:10468000CFCFCFFECFCFCFCFCFCFCFFECFCFCFCFDC
:10469000CFCFCFFECFCFCFCFCFCFCFFECFCFCFCFCC
:1046A000CFCFCFFECFCFFECFCFCFFEFECFFEFEFED1
:1046B000CFCFFECFCFCFFFFFCFCFFECFCFCFCFCF4C
:1046C000CFCFFECFCFCFCFCFCFCFFECFCFCFCFCF9C
:1046D000CFCFFECFCFCFCFCFCFCFFECFCFCFCFCF8C
:1046E000CFCFFEFECFCFCFFECFCFFEFECFCFFEFE91
:1046F000FECFFE02020809151602020C0D191A025D
:10470000020A0B171802020A0B17180202080915F1
:1047100016020206071314020204050F1202020217
:10472000030F11020200010F10666E5D02F66E6645
:10473000665D5D5C026E5D5D5D0B0B0B011D0B0B21
:1047400014530B0B0B130B0B0AAD65656565655CAC
:10475000017766656565665C021D0B0B140B0B0B20
:1047600001130B0B0A530B0B0B666E5D02F66E66A4
:10477000665D5D5C026E5D5D5D0B0B0B011D0B0BE1
:1047800014530B0B0B130B0B0AAE65656565655C6B
:10479000017765656565665C021D0B0B140B0B0BE1
:1047A00001130B0B0A530B0B0B7777766E6E6E6E45
:1047B0006E6E6E6E666E6666666E5D5D1D1D5D5D1F
:1047C000656E5D5D5D5D1D15AE6E651DAEB6665DAB
:1047D000B66E655D5DB7F6F6776E655D1D65BFFE0D
:1047E000776E655D5D1D6EB7776E6E6E6E6E6E6E0A
:1047F0005D6E6E666E666E660B5D5D5D1D5D655C15
:10480000025D0B1D5D5D5D1402761365B7651414C2
:10481000027F76B776135D1402777F7F1C145D14D8
:1048200002777F6D0B5D5D14021D1D1D1D1D0000B7
:104830001C1D1D1D1D1C0000001D1D1D1C1C1C1C05
:10484000001D1C1C1C1C1C1C001D1C1C1C1C1C1CDE
:10485000001D1C1C1C1C1C1C001C1C1C1C1C000007
:10486000001C1C1C1C000000001C1D1D1D1C1D1D0F
:10487000001D1D1D1C1C00001C1D1C1C1C1C1C1CC8
:10488000001D1C1C1C1C1C1C001D1C1C1C1C1C1C9E
:10489000001D1C1C1C1C00001C1D1C1C1C1C0000E2
:1048A0001D1D1C1C1C0000001D1C1D1D1D1C1D1D94
:1048B000001D1D1D1C1C00001C1D1C1C1C1C1C1C88
:1048C000001D1C1C1C1C1C1C001D1C1C1C1C1C1C5E
:1048D000001D1C1C1C1C0000E41D1C1C1C1C00E4F6
:1048E000E41D1C1C1C0000E4E4001D1D1D1D000037
:1048F0001C001D1D1D1C000000001D1D1C1C1C1C7F
:1049000000001D1C1C1C1C1C000000001C1C1C1C8E
:1049100000E400001C1C1C1C00E4E400001C00005F
:1049200000E4E4E40000000000777777776E6E6EB5
:104930006E6E6E6E6E6E6E6E5D776E0A0A0A145D36
:104940000A6E6E0A14145D6E0A6E6E0A14146E6E90
:104950000A6E6E0A14146E6E0A6E6E0A14146E6E6F
:104960000A6E6E0A14146E6E0A040404040704042A
:1049700007040407040404070704070707040707DC
:104980000707070707072707070707070707070797
:104990002707270707270727270707072727272787
:1049A0002727072727273727270704040704040496
:1049B000040707040404070404070707040707079C
:1049C000040707270707070707270707070707073A
:1049D0000727270727070727072727272727070747
:1049E000072727372727270727E4E4E4E4E4E4E45C
:1049F000E4E4E4E4E4E4E4E4A4E4E4E4E4E49C5390
:104A000014E4E4E4E45B0B0B0AE4E4A46565655C90
:104A100001E4E4656565665C02E49C0B140B0B0B1A
:104A200001E4530B0A530B0B0BE4A4E4E4E4E4A508
:104A3000A55D5D5C026E5D5D5D0B0B0B011D0B0BDF
:104A400014530B0B0B130B0B0AAE65656565655CA8
:104A500001776565655B1309001D0B0B0A000000FB
:104A600000130B010000000000666E5D02F66E662A
:104A7000A45D5D5C026E5D5D5D0B0B0B011D0B0BA0
:104A800014530B0B0B130B0B0AAD65656565655C69
:104A900001000009535C665C0200000000000A0B84
:104AA00001000000000000010BE4E4E4E4E4E4E4BD
:104AB000E49DE4E4E4E4E4E4E40B0B539BE4E4E489
:104AC000E4530B0B0B9CE4E4E4AE65656565E4E43C
:104AD000E47765656565A5E4E41D0B0B140B0B9C81
:104AE000E4130B0B0A530B0B9C666E5D02F66E5DB6
:104AF000015D5D5C026E5D54000B0B0B011D0B0A2A
:104B000000530B0B0B130B0A00AD65656565655310
:104B10000077666565656652001D0B0B140B0B0A6A
:104B200000130B0B0A530B0A0000000000000000EA
:104B30000000000000000000000000000000000075
:104B40000000000000000000000000000000000065
:104B50000000000000000000000000000000000055
:104B600000000000000000000000095D02F66E6613
:104B70006600095C026E5D5D5D00000B011D0B0BA4
:104B80001400000B0B130B0B0A0000656565655CD8
:104B9000010000656565665C0200000B140B0B0BE1
:104BA0000100000B0A530B0B0BE4E4E4E4E4E4E43F
:104BB000E4E4E4E4E4E4E4E4E4E4E4E4E4E4E4E4B5
:104BC000E4E4E4E4E4E4E4E4E4E4E4E4E4E4E4E4A5
:104BD000E4E4E4E4E4E4E4E4E4E4E4E4E4E4E4E495
:104BE000E4E4E4E4E4E4E4E4E465655C01AE656522
:104BF0006565665C02776565650B0B0B011D0B0B2C
:104C000014530B0B0B130B0B0AAD65656565655CE7
:104C1000016F655D6565655C026514141414140B01
:104C2000020A0A0A0A0A0A0A0A65655C01AE656593
:104C30006565665C02776565650B0B0B011D0B0BEB
:104C400014530B0B0B130B0B0AAE65656565655CA6
:104C50000177655D6565655C026514141414140BB9
:104C6000020A0A0A0A0A0A0A0A6E655D5D1DAEB6E4
:104C7000776E655D1D65FFFFB66E655D5DFF766EE7
:104C8000F66E5D1DAE761313F66E655D6513141436
:104C9000AE6E5D5C1C145C5D5D650B0A0A0B0A0A56
:104CA0000A0A0202020202020277776E5D5D5D145B
:104CB00002777F7F655C5D1402776E767F655D1499
:104CC0000276131376655D140265141413135D5C8C
:104CD00002545C5D14145C14020A0A0A0B0B0A0AE3
:104CE0000A020202020202020A1C1C1C000000004E
:104CF000001C0000001D1C1C000000001D1D1C1CD1
:104D00001C001D1D1D1C1C1C1C001D1D1C1C1C1C16
:104D100000001D1D1C1C1C1C1C001D1D1C1C1C1C23
:104D20001C001D1D1C1C1C1C001C1C1C001C1C1C15
:104D30001C0000001D1D1D1D00001D1D1D1C1C1C38
:104D400000001D1D1C1C1C1C1C001D1D1C1C1C1CF3
:104D50001C001D1D1C1C1C1C1C001D1D1C1C1C1CC7
:104D600000001D1D1C1C1C1C001C1C1C001CE4E461
:104D7000E40000001C00E4E4E4001D1D1C00E4E469
:104D8000E4001D1D1C00E4E4E4001D1C0000E4E43C
:104D9000E4001D1C00E4E4E4E4001D1C00E4E4E481
:104DA000E4001D1C00E4E4E4E4E4E4E400000000AA
:104DB00000E4E4E400001D1D00E4E4E4E4001D1C44
:104DC0001CE4E4E4E4001D1C1CE4E4E4E4001C1C1A
:104DD00000E4E4E4E4001C1C1CE4E4E4E4001C1C27
:104DE0001CE4E4E4E4001D1C006E6E0A1414776EEB
:104DF0000A6E6E0A14146E6E0A6E6E0A1414776EC2
:104E00000A6E6E0A1414776E0A6E6E145D77776EF2
:104E10000A6E6E5D6E6E6E6E0A6E5D0A0A0A0A0A90
:104E20000A5D0A0A0A0A0A0A0A07273727272727D4
:104E30003727272737272737372727373737373772
:104E4000372737373737FF37373737FF3737373772
:104E5000FFFF373737FF3737FF37FF37FFFF37FFA2
:104E6000FFFFFF37FFFFFFFFFF37272727273727E2
:104E70000737372727372727273737373737372752
:104E8000273737FF3737373727FF37373737FF377A
:104E900037FF3737FF373737FFFFFF37FFFF37FF62
:104EA00037FFFFFFFFFF37FFFFA5655C01AE6565BC
:104EB0006565665C02776565650B0B0B011D0B0B69
:104EC0000A530B0B0B130B0B01AD65656565655B39
:104ED000006F655D65656553006514141414140A4C
:104EE000000A0A0A0A0A0A09005C09000000000018
:104EF00000120000000000000000000000000000A0
:104F000000000000000000000000000000000000A1
:104F10000000000000000000000000000000000091
:104F20000000000000000000000000000000000081
:104F3000120000000000000000000000000000005F
:104F40000000000000000000000000000000000061
:104F50000000000000000000000000000000000051
:104F600000000000000000000065655C01AE6565A2
:104F70006553665C0277656565000A0B011D0B0BC6
:104F800014000A0B0B130B0B0A0012656565655CB8
:104F90000100095D6565655C020001141414140BC1
:104FA0000200000A0A0A0A0A0A65655C01AE655B2E
:104FB0000065665C0277655B000B0B0B011D0B0A3D
:104FC00000530B0B0B130B0A00AD6565656565534C
:104FD000006F655D65656553006514141414140A4B
:104FE000000A0A0A0A0A0A0A0100005C01AE6565A5
:104FF0006500005C027765656500000B011D0B0B09
:105000001400000B0B130B0B0A0009656565655C4A
:105010000100095D6565655C020009141414140B38
:105020000200010A0A0A0A0A0A0000000000000041
:105030000000000000000007000000000000070062
:105040000000000000000000000000000000000060
:105050002F000000000000000000000000072F00EB
:105060000000000000000700000000000000000039
:10507000000000FF00002F000000000000FF000003
:105080000000070000000000000000000000002FEA
:10509000002F00002F0000000000000700000000AB
:1050A0002F002F070000000700000007000000008D
:1050B00000000700000000000000000700000000E2
:1050C000002F00002F000007000000000000070074
:1050D0000000000700002F070000070700002F2F27
:1050E0000700072F0700072F2F0000070000000709
:1050F000000007000000002F00000000000000007A
:105100000000000000000000000000000700000098
:105110000700000700000000000000072F0000004B
:105120000007002F070000002F001D1D1C1C1C1C69
:10513000001C00001D1C0000001C1C1C001D0000A9
:105140001D1C1C1C00001D1D1D1C1C1C1C001D1DED
:105150001C1C1C1C1C001D1D1C1C1C1C00001D1DDF
:105160001C1C1C1C00001D1D1C0000001D1C000040
:10517000001D0000000000001D1D1D1D001D1D1D47
:105180001C1C1C1C001D1C1C1C1C1C1C001D1C1C95
:105190001C1C1C1C001D1C1C1C1C1C1C001D1C1C85
:1051A0001C1C1C1C1C001D1D1C001D1D1C1C1C1C73
:1051B000001C00001D1C1C00001C1C1C001D00000D
:1051C0001D1C1C1C00001D1D1D1C1C1C1C001D1D6D
:1051D0001C1C1C1C1C001D1C1C1C1C1C1C001D0061
:1051E000001C1C1C00000000E4000000E4E4E4E4F7
:1051F000E41D1C00E4E4E4E4E41D1C00E4E4E4E455
:10520000E41C1C00E4E4E4E4E4000000E4E4E4E47E
:10521000E400E4E4E4E4E4E4E400E4E4E4E4E4E416
:10522000E4E4E4E4E4E4E4E4E4E4E4E4E400001DCD
:1052300000E4E4E4E4E4000000E4E4E4E4E4E400A2
:105240001DE4E4E4E4E4E4001DE4E4E4E4E4E40074
:105250001CE4E4E4E4E4E40000E4E4E4E4E4E4E49E
:1052600000E4E4E4E4E4E4E4000000001D1C0000C9
:10527000001D0000000000001D1D1D1D001D1D1D46
:105280001C1C1C1C001D1C1C1C1C1C1C001D1C1C94
:105290001C1C1C1C001D1C1C1C1C1C1C001D1C1C84
:1052A0001C0000001C001D1D1CE4E4E4E4E4E4E434
:1052B000E4E4E4E4E4E4E4E4ADE4E4E4E4E4E4AD1C
:1052C000B6E4E4E4E4E4E4ADF6E4E4E4E4E4ADF616
:1052D000FFE4E4E4E4E4ADF6FFE4E4E4E4E4B6FF90
:1052E000FFE4E4E4E4E4ADF6FFADADB6ADADE4E477
:1052F000E4F6F6FFFFF6ADE4E4FFFFFFFFFFF6E4A0
:10530000E4FFFFFFFFFFFFADE4FFFFFFFFFFFFF63E
:10531000E4FFFFFFFFFFFFFFADFFFFFFFFFFFFFF0A
:10532000ADFFFFFFFFFFFFFFADE4E4E4E4E4E4E4EE
:10533000E4E4E4E4E4E4E4E4E4E4E4E4E4E4E4E42D
:10534000E4E4E4E4E4E4E4E4E4E4E4E4E4E4E4E41D
:10535000E4A4ADADADADE4E4E4ADF6F6FFF6ADE446
:10536000E4F6FFFFFFFFF6ADE4E4000000000000FC
:10537000E40000FF19FFAD000000FFFF19FFADAD15
:105380000000FF1A1AADADAD1900191AADADADADE3
:105390001900FFFFADAD1A1A1900FFADAD1919AD17
:1053A000AD00ADADAD19ADAD00E4E400000000000E
:1053B000E4E40000FFFF1900000000FFFFAD19AD9D
:1053C000000000FFAD1A1AAD00000019191AADADAA
:1053D000000000ADADADAD00000000000000000019
:1053E000E40019FF0000FF0000E4001D1D1C1C006C
:1053F0000000001D1D1C1C1C00001D1D1C1C1C1C75
:1054000000001D1C1C1C1C1C00001D1C1C1C1C1C4A
:105410000000001C1C1C1C0000E400000000000038
:105420001D00001D1D1D1C001D1D1D1D1D1C1C1C07
:10543000001D1D1D1C1C1C1C001D1C1C1C1C1C1CE0
:10544000001D1C1C1C1C1C00001D1C1C1C00000042
:105450000000000000001D1D001D1D1C1C1C1C0068
:10546000001C1C1C1C1C00001D001D1D1C1C1C0005
:10547000001D1D1D1C1C1C1C001D1D1C1C1C1C1C9F
:10548000001D1C1C1C1C1C1C001D1C1C1C1C1C1C92
:10549000001C1C1C1C1C1C0000000000001C000048
:1054A0001D1D1C1C0000001D1C1D1D1D1D1C1C00A5
:1054B000001D1D1D1C1C1C1C001D1C1C1C1C1C1C60
:1054C00000001C1C1C1C1C00000000000000000050
:1054D000E4001D1D1D1D1C0000001D1D1C1C1C1CAE
:1054E00000001D1C1C1C1C1C00E8E89A9A9A9A9A41
:1054F0009AE8E8E8E8E8E89A9A9A9AE8F5F5F5E88B
:10550000E89A9A9A9A9A9AF5F5E8E89A9A9A9A9A5B
:105510009AE8E8E8E8E8E89A9A9A9AE8F5F5F5E86A
:10552000E89A9A9A9A9A9AF5F59A9A9A9A9A9AE889
:10553000E89A9AE8E8E8E8E8E8E8E8F5F5F5E89AAE
:105540009AF5F59A9A9A9A9A9A9A9A9A9A9A9AE8B7
:10555000E89A9AE8E8E8E8E8E8E8E8F5F5F5E89A8E
:105560009AF5F59A9A9A9A9A9A9A9A9A9A9A9AF58A
:10557000F5E8E89A9A9A9A9A9AE8E8E8E8E8E89AC0
:105580009A9A9AE8F5F5F5E8E89A9A9A9A9A9AF525
:10559000F5E8E89A9A9A9A9A9AE8E8E8E8E8E89AA0
:1055A0009A9A9AE8F5F5F5E8E8F5F59A9A9A9A9AAA
:1055B0009A9A9A9A9A9A9AE8E89A9AE8E8E8E8E829
:1055C000E8E8E8F5F5F5E89A9AF5F59A9A9A9A9A3C
:1055D0009A9A9A9A9A9A9AE8E89A9AE8E8E8E8E809
:1055E000E8E8E8F5F5F5E89A9A0000000007000001
:1055F00000000000072F0000070000070700000060
:1056000000002F070700000007000707070700003A
:105610000700002FFF0700072F00002F2FFF2F0785
:10562000FF0000002FFF0707FF0707000000070724
:10563000002F070000000700002F2F0700070700BA
:10564000002F2F072F070700002FFF070707000075
:1056500000FF0707072F0700002F072FFF2F070066
:10566000002F07FFFF2F0000000000072F0707FF94
:105670002F070000072F2F2FFF002F00072F2F2F9E
:10568000FF000007072F2FFFFF000007FF2FFFFF7E
:10569000FF0700072FFFFFFF2F002F0007FFFF2F3F
:1056A0002F000707FFFFFF2F2F07072F0707000017
:1056B000002F2F2F2F07000000FFFF2F2F070000C4
:1056C00000FFFF2F2F07000000FFFFFF2F0700073D
:1056D00000FFFFFF2F070707002F2FFFFFFF2F00FF
:1056E000002F2F2FFF2F2F0700777777776E6E6EA3
:1056F0006E6E6E6E6E6E6E6E6E776E0A0A0A0A0AB5
:105700000A6E6E0A14141414146E6E0A141414140F
:10571000146E6E0A14145D5D5D6E6E0A14145D5D88
:105720005D6E6E0A14145D5D5D6E6E6E6E6E6E6EF5
:105730005D6E6E6E6E6E6E5D0A0A0A0A0A145D0A6E
:105740000A141414145D6E0A0A141414146E6E0AEA
:105750000A5D5D5D146E6E0A0A5D5D5D146E6E0A13
:105760000A5D5D5D146E6E0A0AE4E4E4E40013135E
:1057700001E4E4E4E40013011CE4E4E4E4001301C4
:105780001CE4E4E4E40013011CE4E4E4E400130199
:105790001CE4E4E4E400131301E4E4E4E400131380
:1057A00013E4E4E4E4001313131C131301011C13AA
:1057B0001C1C1313011C1C131C131313011C1313A7
:1057C0001C131313131C13131C1C13131313131385
:1057D000011C1313131313130113131313131313B4
:1057E00001131313131C1313011C131C01011313B6
:1057F0001C13131C1C0113131C1313131C1313135E
:105800001C1C131313131313131C1313131313134D
:10581000131C13131C011313131C131C1C0113134F
:10582000131C131C0113131C1301131300E4E4E4F1
:10583000E401011300E4E4E4E41C011300E4E4E403
:10584000E41C011300E4E4E4E41C1C1300E4E4E4BD
:10585000E4131C1300E4E4E4E4131C1300E4E4E4A4
:10586000E413131300E4E4E4E4E4E4E4E4A4ADADFD
:10587000F6E4E4E4ADADF6F6B6E4E4ADF6FFFFFF22
:10588000FFE4ADF6FFFFFFFFFFE4ADFFFFFFFFFF0B
:10589000FFADF6FFFFFFFFFFFFADF6FFFFFFFFFFCE
:1058A000FFADFFFFFFFFFFFFFFFFFFFFFFFFFFFF5A
:1058B000ADF6FFFFFFFFFFFFADF6FFFFFFFFFFFFAE
:1058C000ADFFFFFFFFFFFFFFADFFFFFFFFFFFFF695
:1058D000F6FFFFFFFFFFFFB6FFFFFFFFFFFFF6F63C
:1058E000FFFFFFFFFFFFF6FFFFF6FFFFFFFFFFF6E3
:1058F000E4FFFFFFFFFFFFFFADFFFFFFFFFFFFFF25
:10590000B6FFFFFFFFFFFFFFF6FFFFFFFFFFFFFFF9
:10591000FFFFFFFFFFFFFFFFFFFFFFFFFFFFFFFF97
:10592000FFFFFFFFFFFFFFFFB6E4E4E4E4E4E4E48D
:10593000E4E4E4E4E4E4E4E4E4E4E4E4E4E4E4E427
:10594000E4E4E4E4E4E4E4E4E4A4ADADADADADE46A
:10595000E4A4B6F6FFFFB6ADE4ADFFFFFFFFFFB670
:10596000E4B6FFFFFFFFFFFFAD0000ADAD19AD00D6
:1059700000E400000000000000E400FFFF19ADADEE
:10598000AD0000FFAD191AADAD00191AADAD1AADDD
:10599000AD00FF1AADAD1A190000001A19ADADAD7A
:1059A00000E400000000000000FF1A1AAD00AD196D
:1059B00000ADAD1AAD001AAD0000AD190000190020
:1059C0000000000000000000E40000FF19FFAD002F
:1059D0000000FF1A1AADADAD00000019ADADAD006D
:1059E00000E4000000000000E4001D1D1D1C1C1C44
:1059F00000001D1C1C1C1C1C00001D1C1C1C1C1C55
:105A000000001C1C1C1C1C1C0000001C1C1C1C1C62
:105A100000E400000000001C0000001D1C1C000031
:105A200000001D1D1C1C1C001D1C1C1C1C1C001D22
:105A30001D0000000000001D1C1D1D1C1C001D1D64
:105A40001C1D1C1C1C001D1C1C1C00000000000058
:105A50001C00001D1C1C1C0000001D1D1C1C1C1C0F
:105A6000001D1D1C1C1C1C1C001C1C1C1C001D1DC6
:105A70001C1C1C1C1C001C1C1C1C1C1C1C000000D6
:105A8000001C1C1C1C00001D1C1C1C1C1C001D1DC3
:105A90001C0000000000001C1C001D1D1C1C000040
:105AA00000001D1D1C1C1C001D001D1C1C1C1C1CA2
:105AB00000001C1C1C1C1C1C0000001C1C1C1C1CB2
:105AC000001C000000000000001D00001D1C1C0048
:105AD000E400001D1D1C1C0000001D1D1C1C1C1CC6
:105AE000001D1D1C1C1C1C1C00E8E89A9A9A9A9A1E
:105AF0009AE8E8E8E8E8E89A9A9A9AE8F5F5F5E885
:105B0000E89A9A9A9A9A9AF5F5E8E89A9A9A9A9A55
:105B10009AE8E8E8E8E8E89A9AF5F5E8F5F5F5E8AE
:105B2000E8F5F5F5F5F5F5F5F59A9A9A9A9A9AE861
:105B3000E89A9AE8E8E8E8E8E8E8E8F5F5F5E89AA8
:105B40009AF5F59A9A9A9A9A9A9A9A9A9A9A9AE8B1
:105B5000E89A9AE8E8E8E8E8E8E8E8F5F5F5E8F52D
:105B6000F5F5F5F5F5F5F5F5F59A9A9A9A9A9AF507
:105B7000F5E8E89A9A9A9A9A9AE8E8E8E8E8E89ABA
:105B80009A9A9AE8F5F5F5E8E89A9A9A9A9A9AF51F
:105B9000F5E8E89A9A9A9A9A9AE8E8E8E8E8E89A9A
:105BA0009AF5F5E8F5F5F5E8E8F5F59A9A9A9A9AEE
:105BB0009A9A9A9A9A9A9AE8E89A9AE8E8E8E8E823
:105BC000E8E8E8F5F5F5E89A9AF5F59A9A9A9A9A36
:105BD0009A9A9A9A9A9A9AE8E89A9AE8E8E8E8E803
:105BE000E8E8E8F5F5F5E8F5F5FFFFAD00F6FFFFAD
:105BF000FFFFFFAD00F6FFFFFF0000000101000006
:105C0000030300000003000000ADFFFFFFFFFFAD36
:105C100000ADFFFFFFFFFFAD00010000010000002D
:105C2000010100000001000000FFFFAD00F6FFFFD2
:105C3000FFFFFFAD00F6FFFFFF00000001010000C5
:105C40000101000000AD000000ADFFFFFFFFFFAD50
:105C500000ADFFFFFFFFFFAD0001000001000000ED
:105C60000001000000010000006E6E0A14145D5D6A
:105C70005D6E6E0A14145D5D5D6E6E0A14145D5DDA
:105C80005D6E6E0A14141414146E6E145D6E6E6ED6
:105C90006E6E6E5D6E6E6E6E6E6E5D0A0A0A0A0A3A
:105CA0000A5D0A0A0A0A0A0A0A5D5D5D14776E0A2D
