:100000000C94E0410C944B420C944B420C944B42A8
:100010000C944B420C944B420C944B420C944B422C
:100020000C944B420C944B420C944B420C944B421C
:100030000C944B420C9496450C94D5450C9401437A
:100040000C944B420C944B420C944B420C944B42FC
:100050000C944B420C944B420C944B420C944B42EC
:100060000C944B420C944B420C944B420C944B42DC
:10007000810045005DFF5E1027FF2AD22B7D210CF9
:1000800022FB850084008903888D81096F02444228
:1000900047004501B083B300B10124B925578A1D3B
:1000A0008B035A55012001010038080000000000B0
:1000B0000000000000000000000000000000000040
:1000C000000014481748734877487E481F48244862
:1000D000294886482C482F4832486D487048964831
:1000E00000408891D2E4ADB5B6BEBFFF0503001352
:1000F0001415161718191A1B1C1D1E1F00050400C5
:100100000102030405060708090A0B0C0D000E0F77
:1001100010111200000000000000000000000000AC
:1001200000000000000000000000000000000000CF
:1001300000000000000000000000000000000000BF
:1001400000000000000000000000000000000000AF
:10015000000000000000000000000000000000009F
:10016000000000000000000000000000000000008F
:1001700000004900000000004952520000004952AE
:10018000531C25004952522425251B52525C2D2D0B
:100190001C121200000000000000000000000040DF
:1001A00049494900404949525B5B5B4A52525B1CDA
:1001B0001C13125B1C241C12090909241B120909B7
:1001C00009090A0A0A0A0A0A0A0A130A0A120A0A80
:1001D00012130A0000000000000000925252525216
:1001E00052524913121309001C1B130A1212401B0E
:1001F00065641C090A0009241B1C65120000251CEB
:100200001C1C1C010025241C1C1C1C00242524244F
:10021000241C1C00000000000000004940000000F9
:1002200000000052494900000000001C5B4A4800E1
:100230000000001C255249000000006524644900AC
:1002400000000065256449000000006D2E5C490037
:10025000000000000000000000405200000000000C
:1002600049525C0000000053522425000000535204
:1002700025252500004A5225251B0000005B25137B
:1002800000001B005B53000A1C3737095B1C657FAD
:10029000372E2E522E2E1C131312002E251B131236
:1002A0000000121C1C12000012251C120000122E4D
:1002B000371C1300132E37361C131B37372E2E25F1
:1002C000131C1C2E2E2E2E1B1C1C1C6E6E6E1C1C3A
:1002D0001C1C1C09131312121313001313131313F2
:1002E0001C0009131313131C0100371313131C13E1
:1002F000002E2E1B1B1C1C001C772E1B1B25001305
:100300007F251C1C1C010A37241C1C1C130A2E25CB
:10031000250900132E2425252525252E25252525CF
:1003200025252525252D2E251B1C1C2E2E251C1391
:10033000251B13251C1C1C1C0109521C1C1300012D
:100340001C5B5C0A000165775C1B00016E7F6E52CE
:100350001B00006D1C5249000000001C13530000DC
:100360000000001C524A00000000005B5B0000001F
:100370000000005C00000000000000000000000021
:10038000000000000000000000000000000000006D
:10039000000000135B7F776E6E6E6E136577766E6E
:1003A0006E6E6E1B65777676766E771B5BBF76B664
:1003B00076767609136DBFB7B6B765001B125C760B
:1003C000BF766D0000121B125B5B5C000000000931
:1003D0000A12136E77241C1C1C1C1C77251C1C1C69
:1003E0001C24256E1C1C1C2425251B1C1C242525B7
:1003F000130000646D6D1B00096EBF6D5B09126E0A
:10040000BF6D5B5B125B645B121312131B1212094C
:100410000100001C242E1C0900096E25240100097E
:10042000767F7F000012777F7F641264BFBF775BA7
:10043000121B09BF6D5B121B09000012131B090080
:1004400000000009000000000000000000000000A3
:100450000000007F7F53131300000064121B010093
:100460000000001B1200000000000000000000005F
:10047000000000000000000000000000000000007C
:10048000000000000000000000000000000000006C
:100490000000000000000000000000260000002610
:1004A0000026262F0000002F000000370000003734
:1004B000000000FF000000FF000000BF000000BFC0
:1004C0000000BF370000370000370000262600007C
:1004D0000026260000000000000000262626002638
:1004E00026262600002F002F0000000037000037CE
:1004F000000000FF000000FFFFFFFF00000000BF42
:10050000000000000000003700000026262600261C
:1005100026262600000000000000002600262626D1
:1005200026000000002F0000002F00000037000010
:100530000037000000FFFFFFFF00000000BF0000C9
:1005400000BF0000003700000037002600262626E6
:100550002600000000000000000000000026262603
:10056000002600002F00002F002F0037000000376A
:10057000000037FF000000FF000000BF000000BFC8
:100580000000BF3700003700003700262626000095
:10059000002600000000000000000000002600000F
:1005A00000000000002F00000000000037000000E5
:1005B000000000FF0000000000000000BF0000007D
:1005C00000000000003700000000000000260000CE
:1005D000000000000000000000000000000000001B
:1005E000000000000000000000000000000000000B
:1005F0000000E400000000099BEDF60000009BA451
:10060000ADBFBF00529BA4767F7FB75B9B6D777FAA
:10061000766EB70000000000000000000000005BE4
:10062000B6F6F6005BF6FFFFFFFFBFF6FFFFFFFF2A
:10063000BFBFAEFFBFFFFFFFB7AD65BFBFFFFFB7D7
:10064000B6AD65B7BFFFFFBFB7AE6EB7BFFFFFBFA9
:10065000B7B7650000000000000000F6F6EDEDAD54
:10066000A4A49BB66D6D5C526E656465656552654C
:10067000766D255C5C52536E24656E6552526E2514
:100680002524255B52772D25252524526E6E2D2598
:1006900025252500000000000000009B4900000007
:1006A000000000A49B920000000000256493490014
:1006B000000000652E9B52000000006D2565520071
:1006C0000000006D2D6552000000006E2E64520087
:1006D000000000000000000000495B000000000076
:1006E0004A5B65000000005B9B6D2D0000005B5BBA
:1006F0002D2E250000525B2E2E1C0900015B2D1CA7
:1007000001091C005C5B014A65777F4A5B1C6E7FB8
:100710007777769B77776D656E6EA4776E65656586
:100720005BA4B725255C52526DBFBF130949647F96
:10073000BFBFBF095C7F7FBFBFB7BF7F7F777F7FB2
:10074000B7BFBF77777F7F6EB7BFBF777F7F6E778B
:10075000BFBFBFB6FFFFFFBFBFB75BBFFFFFFFBF9E
:10076000BFA464BFFFFFFFBFADA47FBFFFFFFFBFFC
:10077000A4BF7FFFFFFFBFADBFBFBFFFFFFFB6BF7F
:10078000BFBF77FFFFF7BFBFBF7777FFFFFFBFBFD9
:10079000BF64526D7F6E2E2D2D256E7F766E6E6E30
:1007A0002E2565777777762E1C25247F776E251C7E
:1007B000251C1B776525251C090A5B6E6E1C0949E3
:1007C0002564645B494A6E7F645C005377BF775B46
:1007D0005C00006E255B4A000000001C1B5B0000F3
:1007E000000000245B5300000000005B5C00000080
:1007F0000000006400000000000000000000000095
:1008000000000000000000000000000000000000E8
:100810000000005B5C7FBF777677775C6D7FB77792
:100820007777775C6D7FBF777777BF5C64BFBFBF3B
:10083000BFBF7F0A5C6EBFBFBFBF760065646DBF80
:10084000BFBFBF00005B6D646DADB600000000125D
:100850005B646D777F6E6E77BFBFBF7F766D767797
:10086000BFBFBF776D6E767FBFBFBF6D6E767FBF38
:10087000B7ADF676BFBF76A4ADFFFFBFB664ADFFE0
:10088000FFFFFFB6ADBFFFFFFFFFF6ADB6AD645B88
:10089000520000FFFFBFBFAD5B64BFFFFFB6ADAD51
:1008A000BFFFBFFFF6FFFFFFFFBF64FFFFFFFFBFFC
:1008B000B6765BFFFFFFBFBF5B0000FFFFFF5C0082
:1008C000000000A400000000000000000000000084
:1008D000000000BFBF645C5C0000006E5C65490006
:1008E0000000006D5B000000000000000000000040
:1008F00000000000000000000000000000000000F8
:1009000000000000000000000000000000000000E7
:100910000000000000001C090000000000020800A8
:10092000085504085A0000F8000990000A1E320514
:100930000000FF0000000000000000000023240071
:100940000000000000000000232400000000000060
:100950000000000000000000000000000000000097
:100960000000000000000000000000000000000087
:100970000000000000000000000000000000000077
:1009800000000000002324000000000000002324D9
:10099000000000000000002526000000000000000C
:1009A00000002526000000000000000000232400B5
:1009B0000000000000000000000000000000000037
:1009C00000000000000023240000000000000000E0
:1009D00000000000000000000000000000000025F2
:1009E0002600000000000000252500000000000097
:1009F00000000000000000000000000000000000F7
:100A0000000000000000002526000000000000009B
:100A1000000000232400000000000000000000008F
:100A2000252600000000000000000000000000007B
:100A300000000000000000000000000000000000B6
:100A400000000000000000000000000000000000A6
:100A50000000000000000000000000000000000096
:100A60000000000000000000000000000025260338
:100A70000303000000000000000000000000000070
:100A80000000000000000000000000000000000066
:100A90000000000000000000000000000000000056
:100AA0000000000000000000000000000000000046
:100AB0000000000000000000000000000000000036
:100AC0000000000003000000000000000000000023
:100AD0000000000000000000000000000000000016
:100AE0000000000000000000000000000000000006
:100AF00000000000000000000000000000000000F6
:100B000000000000000000000000000000000000E5
:100B100000000000000000000000000000000000D5
:100B200000000000000000000000000000000000C5
:100B300000000000000000000000000000000000B5
:100B400000000000000000000000000000000000A5
:100B50000000000000000000000000000000000095
:100B6000000000000000000000290000000000005C
:100B7000000000000000000000000000000202026F
:100B8000000000000000000000000000030300005F
:100B90000000000000000000000000000000000055
:100BA000290000000000000000000000000000001C
:100BB0000000000000000000000000000000000035
:100BC00000000029000000000000000A00000000F2
:100BD00000000032000000000000000000000000E3
:100BE0000000000000000000000000000000000005
:100BF000000000000000000000292929000000007A
:100C000000000000000000000000000000000000E4
:100C100000000000000000000000000000290000AB
:100C200000000000000700000000020202020200B3
:100C300000000000000000000000000000000000B4
:100C400000000000000000000000000000000000A4
:100C500000002929292929000000000000000000C7
:100C60000000000000000004000000000000000080
:100C700000000000000000270000000000000A073C
:100C80000000000000000000000000000000000064
:100C90000000000000000000000000000000000054
:100CA00000000000000000000000000000292929C9
:100CB0000000000000000000000000000000000034
:100CC00004040000290000290000290000000000A1
:100CD0000000000000000000070700000000000006
:100CE000000000000000001F2100000000000000C4
:100CF0000000272700002727000000000000000058
:100D0000330000000000000029000000000000196E
:100D10001A000000000000000004040400000000AD
:100D2000000000000000000000001D1D1D0000006C
:100D3000000A07071E1E000000000000000000005F
:100D4000002022000000000000000032000000002F
:100D50000000000000000007070707000000000077
:100D60000000070000000000001B1C010101010140
:100D70000101010101050000080000080000080051
:100D8000000601010101010101010101010101014F
:100D90000101010101010101010101010101010143
:100DA0000101010101050000000000000006010131
:100DB0000101010101010101010101010101010123
:100DC000010101010100000000000000000000001E
:100DD0000000000000000000000000000000000013
:100DE0000000000000000000000000000000000003
:100DF00000000000000000000000000000000000F3
:100E000000000000000000000000000000000000E2
:100E100000000000000000000000000000000000D2
:100E2000000000000000000000232400000000007B
:100E3000000000002324000000000000000000006B
:100E400000000000000000000000000000000000A2
:100E50000000000000000000000000000000000092
:100E60000000000000000000000000000000000082
:100E700000232400000000000000232400000000E4
:100E800000000025260000000000000000002526CC
:100E9000000000000000000000232400000000000B
:100EA0000000000000000000000000000000000042
:100EB00000002324000000000000000000000000EB
:100EC00000000000000000000000002526000000D7
:100ED0000000000025260023240000000000000080
:100EE0000000000000000000000000000000000002
:100EF0000000002526000000000000000000002384
:100F00002400000000000000000000002526000072
:100F1000000000000000000023240000000000008A
:100F200000000000000000000000000000000000C1
:100F3000002526000000000000000000000000293D
:100F40002900000000000000000000000000000078
:100F50000000000000000000002526000000000046
:100F60000000000000000000000000000000000081
:100F70000000252600000000000000000000000026
:100F80000000000000000000000000000000000061
:100F900000000000000000000029290000000000FF
:100FA0000000000000000000000000000000000041
:100FB00000320000000000000000000000000000FF
:100FC0000000000000000000000000000000000021
:100FD000000000000000040000000000000000000D
:100FE0000000000000000000000000000000000001
:100FF00000003300000000000000000000000000BE
:1010000000000000000202020202020200000000D2
:1010100000000000000000000000000000000002CE
:1010200000020000000000000000000000000000BE
:1010300004000000000000000000000000000000AC
:101040000000000000000000000707070700000084
:101050000900000000000000000000000000000087
:101060000000000000000000000000000000000080
:10107000000000000000000200000000000000006E
:101080000000000000000000000404000000000058
:101090000000000000000000000000000000000050
:1010A0000009000000000000000000000000000037
:1010B0000000000000000000000000000000000030
:1010C000000000000000000000000000000000021E
:1010D0000000000000000000000000000000000010
:1010E00000000004040000000000000000000000F8
:1010F00000000029000000000000000000000000C7
:1011000000000000000009000000000000000000D6
:1011100000000000000029000000000000000000A6
:1011200000000000000000000000000000040004B7
:101130000000000000320000000000000404040071
:101140000000272727000000000000000029000001
:101150000000000900000000000000000000000086
:101160000000000000000000000000000400002952
:1011700004290000040000000000290000290000EC
:10118000000000000004000400040000000303034A
:101190000000000000000404040000000000000043
:1011A0000000000000000029000000000000000016
:1011B0000000000000000000000000000900000026
:1011C000000000000000040000040404000004000B
:1011D0000000000000000000000000000004000407
:1011E00000040004000000000000000000000004F3
:1011F0000404040000000000000000191A000000B0
:1012000000000007070700000000000000000000C9
:1012100000000000000000001E00000000000000B0
:10122000040000000400000004000000001D000095
:101230001D00001D00000004000400040004000064
:10124000000000000000000000040404040000008E
:1012500000000000001B1C0101010105000000004E
:10126000000000000000000000000000000000007E
:10127000000006010101010101010500000000005C
:10128000000006010101010101010101010101014B
:10129000010101010101010101010101010101013E
:1012A000010101010101050000000000000000062D
:1012B000010000000000000000000000000000002D
:1012C000000000000000000000000000000000001E
:1012D000000000000000000000000000000000000E
:1012E00000000000000000000000000000000000FE
:1012F00000000000000000000000000000000000EE
:1013000000000000000000000000000000000000DD
:101310000000000000232400000000000000000086
:101320002324000000000000000000000000000076
:1013300000000000000000000000000000000000AD
:10134000000000000000000000000000000000009D
:101350000000000000000000000000000023240046
:101360000000000000002324000000000000002511
:1013700026000000000000000000252600000000FC
:101380000000000000232400000000000000000016
:101390000000000000000000000000000000232406
:1013A000000000000000000000000000000000003D
:1013B00000000000000000252600000000000000E2
:1013C00025260000000000000000000000000000D2
:1013D00000000003030000000000000000000025E2
:1013E0002600000000000000000000232400000090
:1013F00000000000000000002526000000000000A2
:1014000000000000000000000000000000000000DC
:1014100000000000000000000000000000000000CC
:1014200000000000000000000000000000000000BC
:1014300000000000000000000000000000000000AC
:101440000000000000252600000000000000000051
:10145000000000000000000000000000000000008C
:10146000000000000000000000000000000000007C
:10147000000000000000000000000000000000006C
:10148000000000000000000000320000000000002A
:10149000000000000000000000000000000000004C
:1014A000000000000000000000000000000000003C
:1014B000000000000000000000000000000000002C
:1014C000000000000000000000000000000000001C
:1014D00000000000000000000000000029000000E3
:1014E00002020202000000000000000000000303EE
:1014F00003030300000000000000000000000000E3
:1015000000000000000000000329030000000000AC
:1015100000000000000000000000000000000000CB
:1015200000000000000000000000000000000000BB
:101530000000000000272727000000000000000036
:10154000000000000000000000000000000000009B
:10155000000000000000000000000000000000008B
:101560000000000000000000000000003200002722
:10157000000000000000000000000000000000006B
:10158000000000000000000000000000000000005B
:10159000000000000000000000000000000000004B
:1015A000000000000000000000000000000000003B
:1015B00000000000000000000000000029292900B0
:1015C00000000000000B0C00000000000B0C0000ED
:1015D000000000000000000000000000000000000B
:1015E00000000000002727000000000000000000AD
:1015F000000000000B0C00000000000002020302CB
:1016000002000000000000000000000000000000D8
:101610000000000000000000000000000000000FBB
:101620001000000000000F1000000000000000008B
:101630000000000000000000000000290000000081
:1016400000000000000000000000000000000F107B
:10165000000000000000000000000000000000008A
:10166000000000000000000000000000000000007A
:101670000329030000000000090F10000000000013
:101680000F1000000000000000000000000000003B
:1016900000000000272727000000000000000000D5
:1016A00000000000000000000F100000000000001B
:1016B00000000000001F21000000000000000000EA
:1016C0001F210000000000000000000000000000DA
:1016D0000007090F1000000000000F1000000000BC
:1016E00015160000000000191A000000000000009C
:1016F00000000000000000000000000000000000EA
:1017000000000D0E0000000000000000000000209E
:101710002200000000000000000020220000000065
:10172000000000000000000000000A07090D0E0084
:10173000000000000D0E000000001718000000005F
:10174000001B1C010101050000000000000000005A
:10175000000000000000000000000006010101017F
:101760000101010101010101010101010105000661
:101770000101010101010105000601010101010151
:101780000101010101010101050000000000060145
:10179000010101010101010101010101010000003C
:1017A0000000000000000000000000000000000039
:1017B0000000000000000000000000000000000029
:1017C0000000000000000000000000000000000019
:1017D0000000000000000000000000000000000009
:1017E00000000000000000000000000000000000F9
:1017F00000000000000000000000000000000000E9
:101800000000000000000000000000002324000091
:1018100000000000000000000000000000000000C8
:1018200000000000000000000000000000000000B8
:1018300000000000000000000000000000000000A8
:101840000000000000000000002324000000000051
:101850000000002324000000000000000000000041
:10186000000000000000252600000000000000002D
:101870000023240000000000000000000000000021
:101880000000000000000000000023240000000011
:101890000000000000000000000000000000000048
:1018A00000000025260000000000000000252600A2
:1018B00000000023240000000000000000000000E1
:1018C00000000000000000000000002526000000CD
:1018D00000000000000000232400000000000000C1
:1018E00000000000252600000000000000000000AD
:1018F00000000000000000000000000000000000E8
:10190000000000191A000000000000000025260059
:1019100000000000030302000000000000000000BF
:1019200000000000000000000000000000000000B7
:101930000025260000000000000000000000030356
:101940000300000000000000000000000000000094
:10195000000000000000000000000000001B1C0050
:101960000000000000000000000000000000000077
:101970000000000000000000000000000000000067
:101980000000000000000000000000000000000057
:101990000000000000000000000000000000000047
:1019A0000000000000000000000000000000000037
:1019B000000000000000320B0C00000000000000DE
:1019C0000000000000000000000000000000000017
:1019D0000000000000000000000000000000000007
:1019E00000000000020000000000000000000000F5
:1019F00000000000000000000000000000000032B5
:101A000000000000000000000000000000000000D6
:101A1000040F1000000000000000000000000000A3
:101A200000000302000000000000000000000000B1
:101A300000000000000000000000000000000000A6
:101A4000000000000000000000000000030303008D
:101A50000000000000000000000400000000000082
:101A600000000000000000000004040F100000004F
:101A70000000000000000000000000000000000066
:101A80000000000000000000000000000400000052
:101A90000000000000020200000000020000000040
:101AA0000000000000000000000000000000000036
:101AB00000000004000000002900000000000000F9
:101AC00000000404040F10000000000000000000EB
:101AD0000000000000000000000000000000000006
:101AE00000000000000004000000000000000000F2
:101AF00000000000000000000000000000000000E6
:101B000000000000000000000000000004040000CD
:101B10000029002900000000000000040404040F54
:101B20001000000000000029290000000000000053
:101B3000030000000000000000000000000004009E
:101B4000040000000002020200000000000000008B
:101B5000000000000000000000000303030000007C
:101B600000000000000004040000290029002900F2
:101B70000000000004040404040F1000000000151D
:101B80001604041F210000000000000000000000F7
:101B90001F210000151600000400040000000000D2
:101BA0000000000000000000000000020000000033
:101BB00000000000000000000000001516000004F6
:101BC00004040000002900290000000000040404AF
:101BD0000404040F10000000001718040420220061
:101BE0000000000000000000003220220000171852
:101BF00004000400040000000000000000000000D9
:101C000000000000000000000000000000000000D4
:101C10000000000000171800000404040000000089
:101C2000290000000000040404040404040D0E0153
:101C30000101010101010101010101010101010194
:101C40000101010101010101010101010101010184
:101C50000101010101010105000000000000000078
:101C60000006050006010101010101010101010158
:101C70000101010101010500000008000006010149
:101C8000010101010101010101000000000000004B
:101C90000000000000000000000000000000000044
:101CA0000000000000000000000000000000000034
:101CB0000000000000000000000000000000000024
:101CC0000000000000000000000000000000000014
:101CD0000000000000000000000000000000000004
:101CE00000000000000000000000000000000000F4
:101CF000000000000000000023240000000000009D
:101D000000000000000000000000000000000000D3
:101D100000000000000000000000000000000000C3
:101D200000000000000000000000000000000000B3
:101D30000000000000232400000000000000002339
:101D4000240000000000000000000000000000006F
:101D500000002526000000000000000000232400F1
:101D60000000000000000000000000000000000073
:101D7000000000000000232400000000000000001C
:101D8000000000000000000000000000000000252E
:101D900026000000000000000025260000000023AF
:101DA000240000000000000000000000000000000F
:101DB00000000000000000252600000000000000D8
:101DC00000000023240000000000000000000000CC
:101DD00025260000000000000000000000000000B8
:101DE00000000000000000000000000000000000F3
:101DF0000000000000000000002526000000000098
:101E000000000000000000000000000000000000D2
:101E10000000000000000000000000000025260077
:101E200000000000000000000000000000000000B2
:101E300000000000000000000000000000000000A2
:101E4000000000000000002324000000000000004B
:101E50000000000000000000000000000000000082
:101E60000000000000000000000000000000000072
:101E70000000000000000000000000000000000062
:101E80000000000000000000000000000000000052
:101E90000000000000000000000000000000000042
:101EA00000252600000000000000000000000000E7
:101EB0000000000000030000000000000000030319
:101EC000030000000000000000000000000000000F
:101ED0000000000000000000000000000000000002
:101EE00000000000000000000000003200000000C0
:101EF00000000000000000000000000000000000E2
:101F000000000000000000000000000000000000D1
:101F100000000000000000000000000000000000C1
:101F2000000000000000292900000000000000005F
:101F300000000000000000000000000000000000A1
:101F40000000000000040000000000002900000064
:101F50000000000000000000000000000000000081
:101F6000000000000000000000003200000000003F
:101F70000000000000000000000000000000000061
:101F80000202000000000000000000000000040049
:101F90000000000000000000000000000000040439
:101FA0000000000000290000000000000000000008
:101FB0000000000000000000000000000000000021
:101FC0000000020202000000000000000202020005
:101FD00000000000000000000000000000040000FD
:101FE00000000000000400000400000000320000B7
:101FF00000000000000000040404000000002900AC
:1020000000000000000000000000000000000000D0
:10201000290000002900000000000000000000006E
:1020200000000000000000000000000000000000B0
:102030000000000400000004000000000000000098
:10204000000004000000030203030200000000007F
:102050000404040400000029000000000000000047
:102060000000000000000000000004003200040036
:102070000000000004000000000000041F21000018
:102080001516000000000000000000000004000021
:102090000004000200000400000000000400000032
:1020A0000000000000000000000004040404000020
:1020B0000000000000000000000000000000001907
:1020C0001A000000040404040400000000000400DE
:1020D000000000000004202200001718000000008B
:1020E00000000000000000040000000400000000E8
:1020F00000000000000004000000000000000000DC
:1021000000000000040404040000000000000000BF
:102110000000002900000000001B1C010500000059
:10212000000000000006010101010101010101019F
:102130000101010101010101010101010105000687
:102140000101010101050000000000000000000085
:10215000060101010101010101010101010101016A
:102160000101010500080008000601050006010143
:10217000010101010100000000000000000000005A
:10218000000000000000000000000000000000004F
:10219000000000000000000000000000000000003F
:1021A000000000000000000000000000000000002F
:1021B000000000000000000000000000000000001F
:1021C000000000000000000000000000000000000F
:1021D00000000000000000000000000000000000FF
:1021E00000000000232400000000000000000000A8
:1021F00000000000000000000000000000000000DF
:1022000000000000000000000000000000000000CE
:1022100000000000000000000000000000000000BE
:102220000023240000000000000000232400000020
:102230000000000000000000000000000000252653
:102240000000000000000000002324000000000047
:10225000000000000000000000000000000000007E
:102260000000232400000000000000000000000027
:102270000000000000000000000000252600000013
:102280000000000000252600000000000000000003
:10229000000000000000000000000000000000003E
:1022A00000000025260000000000000000000023C0
:1022B00024000000000000000000000025260000AF
:1022C000000000000000000000000000000000000E
:1022D00000000000000000000000000000000000FE
:1022E00000000000000000000000000000000000EE
:1022F00000000000000000000000000000000000DE
:102300000000000000000000002526000000000082
:1023100000000000000000000000000000000000BD
:1023200000000000000000000000000000000000AD
:102330000000002324000000000000000000000056
:10234000000000000000000000000000000000008D
:10235000000000000000000000000000000000007D
:10236000000000000000000000000000000000006D
:10237000000000000000000000000000000000005D
:102380000000000000000000000000000025260002
:10239000000000000000000000000000000000003D
:1023A000000000000000000000000000000000002D
:1023B000000000000000000000000000000000001D
:1023C000000000000000000000000000000000000D
:1023D00000000000000000000000000000000000FD
:1023E00000040400000000000000000000000000E5
:1023F00000000000000000000003000003000000D7
:1024000000000000000000000000000000000000CC
:1024100000000000000000000000000002020202B4
:1024200000000000000000000000000000000000AC
:102430000000000000000000000000040400000094
:10244000000000000000000000000000000000008C
:10245000000000000000000000000000000000007C
:10246000000000000000000000000000000000006C
:10247000000000000000000000000000000000005C
:10248000000000000000000000000000000000004C
:102490000004000000040400000000000000000030
:1024A000000000000000000000000000000000002C
:1024B00000000000000029292900000000000000A1
:1024C0000B0C0000000000000000000000000000F5
:1024D00000000000000000000000000000000000FC
:1024E00000000000000000000000000404000004E0
:1024F00004000000000400000000000000000000D4
:1025000000000000000000030000030000000000C5
:10251000000000000000000000000F10000000009C
:102520000000000000000003030302020203030393
:10253000000000000000000000000000000000009B
:102540000404000000040400000404000000000073
:1025500000000000000000151600001F2100000010
:1025600000000000000000001F21003315160000CD
:10257000000000000F10000000000000000000003C
:10258000000000000000000000000000000000004B
:102590000000000000000404000004040000000427
:1025A0000400000404000004000000191A000000E8
:1025B00000171800002022000000000000000000AA
:1025C00000002022000217180000000000000D0E7D
:1025D00000000000000000000000000000000000FB
:1025E00000000000000000000000000004040000E3
:1025F00004040000040400000004040000040400BB
:1026000000000000001B1C0101010101010101018A
:1026100001010101010101010101010101010101AA
:102620000101010101010101010101010101010596
:102630000006010101010105000605000601010176
:10264000010101010101010101010101010101017A
:102650000101010101010101050000000000000667
:102660000100000000000000000000000000000069
:10267000000000000000000000000000000000005A
:10268000000000000000000000000000000000004A
:10269000000000000000000000000000000000003A
:1026A000000000000000000000000000000000002A
:1026B000000000000000000000000000000000001A
:1026C000000000000000000000000000000000000A
:1026D00023240000000000000000000000000000B3
:1026E00000000000000000000000000000000000EA
:1026F00000000000000000000000000000000000DA
:102700000000000000000000000000000023240082
:102710000000000000000023240000000000000072
:10272000000000000000000000002526000000005E
:102730000000000000232400000000000000000052
:102740000000000000000000000000000000232442
:102750000000000000000000000000000000000079
:10276000000000000000002526000000000000001E
:1027700000252600000000232400000000000000C7
:1027800000000029000000000000000000000025FB
:1027900026000000000000000000002324000000CC
:1027A00000000000000000002526000000000000DE
:1027B00000000000000000000000330000000000E6
:1027C0000000000000000000000000000000000009
:1027D0000025260000000000000000002929290033
:1027E00000000000000000000000000000000000E9
:1027F000000000000025260000000000000000008E
:1028000000000000000000000000000000000000C8
:102810000007070707000000000000000000002379
:102820002400000000000000000000000000000084
:1028300000000000002929292929000000000000CB
:102840000707070000000000000000000000000073
:102850000000000000000000000000000000000078
:102860000000000000000000000000000000000068
:10287000000000000000000000252600000000000D
:102880000000000000000000000000000000000741
:10289000070707070000000000000000000000001C
:1028A000000000000000000707070700000000000C
:1028B0000000000000000000000000000000000018
:1028C0000000000000000000000000000000000008
:1028D00000000000000000000000000000000000F8
:1028E00000000000000000000000000000000000E8
:1028F00007070700000000000000000000000000C3
:1029000000000000000000000000000707000000B9
:1029100000030300000000000000000000070000AA
:10292000000000002900000000000000000000007E
:102930000000000000000000000000000000000097
:102940000000000000000000000000000000000087
:10295000000000000000000B0C0000000000000060
:102960000000000000000000000000000000000067
:102970000000000000000707000000000000290020
:102980000000000000000000000000000000000047
:1029900000000000000000000032000000070707F0
:1029A0000707000000000000000000000B0C000002
:1029B000000F1000000000000000000000000000F8
:1029C0000000000000000000000000000000000700
:1029D00007070000000000002900000000000000C0
:1029E00000000000000000000000000000000000E7
:1029F00000070707000000000000000000000000C2
:102A00000000000000000F100000000F1000000088
:102A10000000000007070700000000000004040099
:102A20000004040000000000070707070000000082
:102A3000000029000000000000000000000000006D
:102A40000000000000000000000000000000000086
:102A50000000000000000000000000000000000076
:102A60000F100000000F1000000000000000000028
:102A70000000000000000000000000000000000056
:102A800000070707070700000000000029000000FA
:102A900000000000000000191A0000000000000003
:102AA0000707070000000000000000000000000011
:102AB000000000000000000000000D0E0000000DEE
:102AC0000E000000000000000000000000000000F8
:102AD00000000000000000000000070707070707CC
:102AE0000000000000002900000000290029002942
:102AF000001B1C0101010500000000000000000097
:102B000000000000000000000000000000000000C5
:102B1000000000000605000000060500000000009F
:102B20000000000000000000060101010101010198
:102B3000010101010101010101010105000800007D
:102B4000060101010105000800080006010000005F
:102B50000000000000000000000000000000000075
:102B60000000000000000000000000000000000065
:102B70000000000000000000000000000000000055
:102B80000000000000000000000000000000000045
:102B90000000000000000000000000000000000035
:102BA0000000000000000000000000000000000025
:102BB00000000000000000000000000023240000CE
:102BC0000000000000000000000000000000000005
:102BD00000000000000000000000000000000000F5
:102BE00000000000000000000000000000000000E5
:102BF000000000000000000000232400000000008E
:102C0000000023240000000000000000000000007D
:102C10000000000000002526000000000000000069
:102C2000002324000000000000000000000000005D
:102C3000000000000000000000002324000000004D
:102C40000000000000000000000000000000000084
:102C500000000025260000000000000025260000DE
:102C6000000000002324000000000000000000001D
:102C70000000000000000000000000252600000009
:102C800000000000000000232400000000000000FD
:102C900000000000252600000000000000000000E9
:102CA0000000000000000000000000000000000024
:102CB00000000000000000000000000000002526C9
:102CC0000000000000000000000000000000000004
:102CD00000000000000000000000000000000000F4
:102CE0000025260000000000000000000000000099
:102CF00000000000000000000000000000000000D4
:102D0000000000000000000000000023240000007C
:102D100000000000000000000000000000000000B3
:102D200000000000000000000000000000000000A3
:102D30000000000000000000000000000000000093
:102D40000000000000000000000000000000000083
:102D50000000000000000000000000000000000073
:102D60000000000000252600000000000000000018
:102D70000000000000292900000000000000000001
:102D80000000000000000000000000000000000043
:102D90000000000000000000000000000000000033
:102DA0000000000000000000000000000000000023
:102DB0000000000000000000000000000000000013
:102DC00000000000000000000000000000000029DA
:102DD00029000003020200000000000000000000C3
:102DE000000000000032000000002929000000005F
:102DF00000000000000000000000000202020302C8
:102E000002020000000000000000000000000000BE
:102E100000000000000000000000000000000000B2
:102E20000000000000000000000707000000000094
:102E30000000000000000000000000000404040482
:102E4000040000000202000000000000000000007A
:102E50000000000000000000000000000000000072
:102E6000000000000000003300000000000000002F
:102E70000000000000191A0000000000000000001F
:102E80000000000000000000000032000000000010
:102E9000000000000004040000000000000000002A
:102EA00000000000000000000000000000000032F0
:102EB000000000000000000000000000000004040A
:102EC0000404000000000000000000000000001BDF
:102ED0001C000003000000000000070700000000C5
:102EE00003020303020000000000000000000404CD
:102EF000040029290000000000000000000000007C
:102F00000000000029290000000202020302020260
:102F1000000000000000000404040404000000009D
:102F20000000000000000000000707000000000093
:102F30000000000000000000000000000000000091
:102F40001F21000000000004040404000B0C000218
:102F50000202020202000000000000000000292915
:102F60000000000000000000000000000000000061
:102F7000040404040404000000000015160000000E
:102F80000000070707000000000007070700000017
:102F900000000000000000000000202200000404E7
:102FA0000404040404000D0E0000000000000000F2
:102FB00000000000000000002929000000000000BF
:102FC00000000000000000000004040404040404E5
:102FD00000000000001718000000000707070701A5
:102FE00001010500000000000000000000060101D2
:102FF00001010101010101010101010101010101C1
:10300000010500060101010500060101010101059C
:103010000006050006010101010101010101010194
:103020000101010101010101010500000800060183
:103030000101010101010101010000000000000087
:103040000000000000000000000000000000000080
:103050000000000000000000000000000000000070
:103060000000000000000000000000000000000060
:103070000000000000000000000000000000000050
:103080000000000000000000000000000000000040
:103090000000000101010101010101000000000028
:1030A00000000000000000002324000000000000D9
:1030B0000000000000000000000000000000000010
:1030C0000000000000000000000000000000000000
:1030D00000000000000000000000000000000000F0
:1030E0000000000000232400000000000000002376
:1030F00024000000000000000000000000000000AC
:10310000000025260000000000000000002324002D
:1031100000000000000000000000000000000000AF
:103120000000000000002324000000000000000058
:10313000000000000000000000000000000000256A
:1031400026000000000000000025260000000023EB
:10315000240000000000000000000000000000004B
:103160000000000000000025260000000000000014
:103170000000002324000000000000000000000008
:1031800025260000000000000000000000000000F4
:10319000000000000000000000000000000000002F
:1031A00000000000000000000025260000000000D4
:1031B000000000000000000000000000000000000F
:1031C00000000000000000000000000000252600B4
:1031D00000000000000000000000000000000000EF
:1031E00000000000000000000000000000000000DF
:1031F0000000000000000023240000000000000088
:1032000000000000000000000000000000000000BE
:1032100000000000000000000000000000000000AE
:10322000000000000000000000000000000000009E
:10323000000000000000000000000000000000008E
:10324000000000000000000000000000000000007E
:103250000025260000000000000000000000000023
:10326000000000000000000000000100000000005D
:10327000000000000000000000000000000000004E
:10328000000000000000000000000000000000003E
:1032900000000000000000000000003200000000FC
:1032A000000000000000000000000000000000001E
:1032B0000000000000000000000000000000020309
:1032C00002000000010000000000000000000000FB
:1032D000000000000000292900000000000000009C
:1032E00000000000000302020303020000000000CF
:1032F00000000000000400000000000029000000A1
:1033000000000000000000000000000000000000BD
:1033100000000000000000000000000000000100AC
:10332000000000000000000000000000000000029B
:103330000202020000000000000000000000000087
:103340000000000000000000000000000000040475
:103350000000000000290000000000000000000044
:10336000000000000000000000000000000000322B
:10337000000000000000320001000000000000001A
:10338000000000000B0C0000000000000000000026
:1033900000000000000000000000003200000000FB
:1033A00000000000000000040404000000002900E8
:1033B000000000000000000000000000000000000D
:1033C00000000000000000000000000203020303F0
:1033D00002000100000000000000000000000D0ECF
:1033E00000000000000000000000000000000000DD
:1033F00000000003020203000200000000000000C1
:103400000404040400000029000000000000000083
:103410000000000000000000000000151600001F62
:103420002100000000000000000000001F2100003B
:1034300015160000000000000B0C0000000000004A
:10344000000000000000000000000000000000007C
:10345000000000000000000000000404040400005C
:10346000000000000000001F210000000000001903
:103470001A0000000017180000202200003200325D
:103480000032000000002022000017180000000099
:1034900000000D0E00000000000000000000000011
:1034A000000000000000000000000000000000001C
:1034B00000000000040404040000000000000000FC
:1034C0000020220000000000001B1C01010101017E
:1034D00001010101010101010101010101010101DC
:1034E00001010101010101010101010101010101CC
:1034F00001010105000601010101010500060500A9
:1035000006010101010101010101010101010101A6
:103510000101010500080008000601010101010187
:103520000101010101000000000000000000000096
:10353000000000000000000000000000000000008B
:10354000000000000000000000000000000000007B
:10355000000000000000000000000000000000006B
:10356000000000000000000000000000000000005B
:10357000000000000000000000000000000000004B
:1035800000000000000000000000232400000000F4
:10359000000000000000000000000000000000002B
:1035A000000000000000000000000000000000001B
:1035B000000000000000000000000000000000000B
:1035C00000000000000000000000000000000023D8
:1035D00024000000000000000000000400000004BF
:1035E000000000002526000000000000000004008C
:1035F00000000000000000040404040000000000BB
:1036000000000000000000000000000000000000BA
:1036100004000000000000000000000000000000A6
:10362000000400000000000000252600000000004B
:10363000000000000004040004040000000000007A
:103640000400000400000400040000000032000038
:10365000000400000004000000000000000400005E
:103660000000003300000000000004000000000023
:1036700000000000000000000000000400232400FF
:103680000000000000000000000000000000000436
:103690000004000400000404000004000004000012
:1036A0000000000000040404000000040000000406
:1036B00000000404000004040400040004040000EA
:1036C00004040000040000000004040000040404DA
:1036D0000000000404040025260000000000000093
:1036E0000000002324000000000400000004000487
:1036F00000000400040000040000040000000400B6
:1037000000000000000404040400000400000400A1
:103710000004000004040000000400000400040091
:103720000000000000040004000004000400000485
:10373000000000000000000000000000002526003E
:10374000000000040000000400040404040004005D
:103750000004000004000000000404000000000455
:10376000000400000004040404000004000004003D
:103770000000000400000400040000000004040431
:103780000004000004000400000400000000000029
:103790000000000000000000000000000004000025
:1037A0000004000400000000040000040000040005
:1037B00000000000000400000004000004000004F9
:1037C00000000000000400000400000000040000ED
:1037D00004000400000004000004000400000400D1
:1037E00004000004000000000000000000000000D1
:1037F00000000000000000040000000400000404B9
:103800000000040400040400040000000403040099
:103810000000000400000003000004040000000099
:10382000030004000000000004040000040404007D
:103830000004040400040000040000040404000068
:103840000000000000000000000000000000000078
:103850000000000000000000000000000000000068
:103860000000000000000000000000000000000058
:103870000000000000000000000000000000000048
:103880000000000000000000000000000000000038
:103890000000000000000000000000000000000028
:1038A0000000000000000000000000000000000018
:1038B0000000000000000000000000000000000008
:1038C00000000000000000000000000000000000F8
:1038D00000000000000000000000000000000000E8
:1038E00000000000000000000000000000000000D8
:1038F00000000000000000000000000000000000C8
:1039000000000000000000151600001F210000004C
:1039100000000000000000001F210000151600003C
:103920000000000000000000000000000000000097
:103930001516000000000000000000001516000031
:1039400000000000001F2100000000000000000037
:103950000000001F21000000000000191A000000F4
:1039600000171800002022000000000000000000E6
:1039700000002022000017180000000000000000D6
:103980000000000000000000000017180000000008
:1039900000000000000017180000000000000020D8
:1039A000220000000000002929292900002022000F
:1039B00000000000001B1C010101010101010101C7
:1039C00001010101010101010101010101010101E7
:1039D00001010101010101050006010101010101CF
:1039E00001050006010101010101050006050006AF
:1039F00001010101010101010101010101010101B7
:103A000001010101010101010101010101010101A6
:103A100001000000000000000000000000000000A5
:103A20000000000000000000000000000000000096
:103A30000000000000000000000000000000000086
:103A40000000000000000000000000000000000076
:103A50000000000000000000000000000000000066
:103A6000000000000000000000000000C00000B0E6
:103A7000077200077C0090246E14246E0B246E15D0
:103A8000286E0A2B6E15296E15296E0A296E152DC2
:103A90006E0A306E15246E15246E0B246E14286E7B
:103AA0000B2B6E15296E15296E0A296E152D6E0ABF
:103AB000306E15246E15246E0A246E15286E0B2B9D
:103AC0006E15296E14296E0B296E152D6E0A306E37
:103AD00015296E15296E0A296E152D6E0B306E1480
:103AE000296E15296E0B296E152D6E0A306E152460
:103AF0006E15246E0A246E15346E00286E0A3B6E15
:103B0000002B6E153C6E00296E153C6E00296E0B65
:103B1000296E14346E002D6E0B306E15246E152434
:103B20006E0A246E15346E00286E0A3B6E002B6EF2
:103B3000153C6E00296E153C6E00296E0A296E1523
:103B4000346E002D6E0B306E15246E14246E0B2413
:103B50006E15346E00286E0A3B6E002B6E153C6E9F
:103B600000296E153C6E00296E0A296E15346E0010
:103B70002D6E0A306E153C6E00296E153C6E0029C4
:103B80006E0B296E14346E002D6E0B326E00306E8B
:103B9000153C6E00296E153C6E00296E0A296E15C3
:103BA000346E002D6E0A306E15246E15246E0A24B4
:103BB0006E15286E0B2B6E15296E14296E0B296E4F
:103BC000152D6E0A306E15246E15246E0A246E159E
:103BD000286E0B2B6E14296E15296E0B296E152D70
:103BE0006E0A306E15246E15246E0A246E15286E2A
:103BF0000A2B6E15296E15296E0B296E142D6E0B6E
:103C0000306E15296E15296E0A296E152D6E0A3033
:103C10006E15296E15296E0A296E152D6E0B306EE4
:103C200015246E14246E0B246E15286E0A2B6E1547
:103C3000296E15296E0A296E152D6E0A306E15240F
:103C40006E15246E0B246E14286E0B2B6E15296EC8
:103C500015296E0A296E152D6E0A306E15246E1503
:103C6000246E0A246E15286E0B2B6E15296E1429EE
:103C70006E0B296E152D6E0A306E15296E15296E84
:103C80000A296E152D6E0B306E14296E15296E0BD8
:103C9000296E152D6E0A306E15246E15246E0A24B9
:103CA0006E15246E0A246E0B246E0A246E15246E83
:103CB0000B246E34246E15246E0A246E15286E0AA9
:103CC000286E0B286E0A2B6E15296E0A266E152893
:103CD0006E0B266E15246E14246E0B246E15286E42
:103CE0000A286E0B286E0A2B6E15296E0A266E1591
:103CF000286E0A266E15246E15246E0B246E142869
:103D00006E0B286E0A286E0B2B6E15296E0A266E16
:103D100015286E0A266E152B6E15296E0A266E154D
:103D2000286E0B266E152B6E14296E0B266E152829
:103D30006E0A266E15246E15246E0A246E15286EE2
:103D40000B286E0A286E0A2B6E15296E0B266E152F
:103D5000286E0A266E15246E15246E0A246E152808
:103D60006E0A286E0B286E0A2B6E15296E0B266EB6
:103D700014286E0B266E15246E15246E0A246E15FB
:103D8000286E0A286E0B286E0A2B6E15296E0A26DD
:103D90006E15286E0B266E152B6E14296E0B266E73
:103DA00015286E0A266E152B6E15296E0A266E15BD
:103DB000286E0B266E14246E15246E0B246E1428A8
:103DC0006E0B2B6E15296E15296E0A296E152D6E38
:103DD0000A306E15246E15246E0A246E15286E0B9B
:103DE0002B6E15296E14296E0B296E152D6E0A3057
:103DF0006E15246E15246E0A246E15286E0B2B6E1C
:103E000014296E15296E0B296E152D6E0A306E154C
:103E1000296E15296E0A296E152D6E0A306E152928
:103E20006E15296E0B296E142D6E0B306E15246ED7
:103E300015246E0A246E15286E0A2B6E15296E1530
:103E4000296E0A296E152D6E0B306E15246E142402
:103E50006E0B246E15286E0A2B6E15296E15296EB1
:103E60000A296E152D6E0B306E14246E15246E0B00
:103E7000246E14286E0B2B6E15296E15296E0A29D7
:103E80006E152D6E0A306E15296E15296E0A296E73
:103E9000152D6E0B306E15296E14296E0B296E15BB
:103EA0002D6E0A306E15246E15246E0A246E1524AC
:103EB0006E0B246E0A246E0A246E15246E0B246E7B
:103EC0000AFF2F000000002040000000000000005A
:103ED0002040000000000000002040000000000022
:103EE0000000204000000000000000D23F00000061
:103EF00000000000C43F00000000000000AA3F00D6
:103F0000000000000000963F000000000000007F5D
:103F10003F00000000000000623F000000000000C1
:103F200000273F0000000000020300078000084C4B
:103F300002040A0204080204060204040204020045
:103F40000838020305020402020305020305020405
:103F5000020203050000F804030504040504030538
:103F600000FF0002010007800000FD00082D05048D
:103F7000050204010504050204020A050000FF0011
:103F80000780000202000840030304020304020445
:103F90000802050000FF000202000790020306026B
:103FA00003020103010000F600FF0002040000FC10
:103FB00003085A03086003085A03086003085A01FB
:103FC000050000FF0002060007400008280000F07E
:103FD00000FF0002060008320007700000FC040326
:103FE00001040301030301030301030301030301AC
:103FF000030301030301030301030301010301019F
:10400000030101050000FF0001010007900000E22C
:1040100008050000FF0002020106000100E000FFA9
:104020000002060007400000F600FF000204000046
:10403000DD00FFFEFEFEFEFEFEFEFEFEFEFEFEFEBE
:10404000FE4141FEFEFEFEFE41D8D8FEFEFEFE41D0
:10405000D8D8D8FEFEFEFE41D8D8D8FEFEFE41F8E4
:10406000D8D8D8FEFEFE41F8D8D8B7FEFEFE41F8FB
:10407000D8B7FF414141FEFEFEFEFE41F8F841FE89
:10408000FEFEFED841F8F841FEFEFED8D84141417F
:1040900041FEFED8D841F8F8D841FED8D8D84141E1
:1040A000D841FEFFFFFFD8D8FF41FEFF4141B74195
:1040B000FF41FEFEFEFEFEFEFEFEFEFEFEFEFEFEDC
:1040C000FEFEFEFEFEFEFEFEFE4141FEFEFEFEFE8A
:1040D00041D8D8FEFEFEFE41D8D8D8FEFEFEFE41F5
:1040E000D8D8D8FEFEFE41F8D8D8D8FEFEFE41F85A
:1040F000D8D8B7FEFEFEFEFEFEFEFE414141FEFEAA
:10410000FEFEFE41F8F841FEFEFEFED841F8F84101
:10411000FEFEFED8D841414141FEFED8D841F8F814
:10412000D841FED8D8D84141D841FEFFFFFFD8D8AA
:10413000FF41FEFEFEFEFEFEFEFEFEFEFEFEFEFE5B
:10414000FEFE41FEFEFEFEFEFE41D8FEFEFEFEFE2F
:1041500041D8D8FEFEFEFEFE41D8D8FEFEFEFE414E
:10416000F8D8D8FEFEFEFE41F8D8D8FEFEFE41414A
:10417000F8D8B7FE414141FEFEFEFE4141F8F8414C
:10418000FEFEFED8D841F8F841FEFED8D8D841410D
:104190004141FED8D8D841F8F8D841D8D8D8D8412C
:1041A00041D841B7FFFFFFD8D8FF41FFFF4141B7DA
:1041B00041FF41FE4141FEFEFE414141D8D841410F
:1041C0004141F841D8D841D8D8D84141D84141D807
:1041D000D8D8D841D841F8D8D8D8D841D841F8D87B
:1041E000D8D8D841D841F8D8B7FFFF41F841D8B75F
:1041F000FFFF4141FEFEFEFEFEFEFEF841FEFEFE1A
:104200004141FEF8F841FE41D8D84141414141D8F1
:10421000D8D84141F8F8D841D8D841D84141D841FF
:10422000D8D841FFD8D8FF41D8D84141B741FF4144
:10423000F841FEFEFEFEFEFEFEFEFEFEFEFEFEFE61
:10424000FEFEFEFEFEFEFEFEFEFE41FEFEFEFEFE4B
:10425000FE41D8FEFEFEFEFE41D8D8FEFEFEFEFE6A
:1042600041D8D8FEFEFEFE41F8D8D8FEFEFEFE4143
:10427000F8D8D8FEFEFEFEFEFEFEFEFE414141FEE7
:10428000FEFEFE4141F8F841FEFEFED8D841F8F8A6
:1042900041FEFED8D8D841414141FED8D8D841F896
:1042A000F8D841D8D8D8D84141D841B7FFFFFFD876
:1042B000D8FF41FEFEFEFEFEFEFEFEFEFEFEFEFE00
:1042C000FE4141FEFEFEFEFE41D8D8FEFEFEFE414E
:1042D000D8D8D8FEFEFEFE41D8D8D8FEFEFE411F3B
:1042E000D8D8D8FEFEFE411FD8D8B7FEFEFE411F2B
:1042F000D8B7FF414141FEFEFEFEFE411F1F41FEB9
:10430000FEFEFED8411F1F41FEFEFED8D8414141AE
:1043100041FEFED8D8411F1FD841FED8D8D8414110
:10432000D841FEFFFFFFD8D8FF41FEFF4141B74112
:10433000FF41FEFEFEFEFEFEFEFEFEFEFEFEFEFE59
:10434000FEFEFEFEFEFEFEFEFE4141FEFEFEFEFE07
:1043500041D8D8FEFEFEFE41D8D8D8FEFEFEFE4172
:10436000D8D8D8FEFEFE411FD8D8D8FEFEFE411F89
:10437000D8D8B7FEFEFEFEFEFEFEFE414141FEFE27
:10438000FEFEFE411F1F41FEFEFEFED8411F1F41E3
:10439000FEFEFED8D841414141FEFED8D8411F1F44
:1043A000D841FED8D8D84141D841FEFFFFFFD8D828
:1043B000FF41FEFEFEFEFEFEFEFEFEFEFEFEFEFED9
:1043C000FEFE41FEFEFEFEFEFE41D8FEFEFEFEFEAD
:1043D00041D8D8FEFEFEFEFE41D8D8FEFEFEFE41CC
:1043E0001FD8D8FEFEFEFE411FD8D8FEFEFE41417A
:1043F0001FD8B7FE414141FEFEFEFE41411F1F4155
:10440000FEFEFED8D8411F1F41FEFED8D8D841413C
:104410004141FED8D8D8411F1FD841D8D8D8D8415B
:1044200041D841B7FFFFFFD8D8FF41FFFF4141B757
:1044300041FF41FE4141FEFEFE414141D8D841418C
:1044400041411F41D8D841D8D8D84141D84141D85D
:10445000D8D8D841D8411FD8D8D8D841D8411FD8AA
:10446000D8D8D841D8411FD8B7FFFF411F41D8B78E
:10447000FFFF4141FEFEFEFEFEFEFE1F41FEFEFE70
:104480004141FE1F1F41FE41D8D84141414141D821
:10449000D8D841411F1FD841D8D841D84141D8412F
:1044A000D8D841FFD8D8FF41D8D84141B741FF41C2
:1044B0001F41FEFEFEFEFEFEFEFEFEFEFEFEFEFEB8
:1044C000FEFEFEFEFEFEFEFEFEFE41FEFEFEFEFEC9
:1044D000FE41D8FEFEFEFEFE41D8D8FEFEFEFEFEE8
:1044E00041D8D8FEFEFEFE411FD8D8FEFEFEFE419A
:1044F0001FD8D8FEFEFEFEFEFEFEFEFE414141FE3E
:10450000FEFEFE41411F1F41FEFEFED8D8411F1F87
:1045100041FEFED8D8D841414141FED8D8D8411FEC
:104520001FD841D8D8D8D84141D841B7FFFFFFD8CC
:10453000D8FF41FEFEFE03FEFEFEFEFEFEFE03036E
:10454000FEFEFEFEFEFE030303FEFEFEFEFE1C0359
:10455000030303FEFEFE1C1C1C1C03FEFEFE03FFE9
:10456000FF0303FEFEFE03FF000303FEFEFE03FF48
:10457000FF2727FEFEFE03FEFEFEFEFEFE0303FEF9
:10458000FEFEFEFE030303FEFEFEFE0303031CFE0F
:10459000FEFEFE1C1C1C1CFEFEFEFE03FFFF03FEB7
:1045A000FEFEFE0300FF03FEFEFEFE27FFFF03FEEE
:1045B000FEFEFEFEFEFEFEFEFEFEFEFEFE0303030C
:1045C000FEFEFEFEFEFE030303FEFEFEFEFE1C03D9
:1045D000030303FEFEFE1C1C1C1C03FEFEFE03FF69
:1045E000000303FEFEFE03FFFF0303FEFEFE03FFC8
:1045F000FF2727FEFEFEFEFEFEFEFEFEFE03030379
:10460000FEFEFEFE030303FEFEFEFE0303031CFE8E
:10461000FEFEFE1C1C1C1CFEFEFEFE0300FF03FE35
:10462000FEFEFE03FFFF03FEFEFEFE27FFFF03FE6E
:10463000FEFEFEFE0000000000FEFE00FF00000087
:10464000FF00FE00FFFFFFFFFF00FE00FFFF00FF77
:10465000FF00FE00FF000000FF00FE00FFFF00FF64
:10466000FF001800FFFFFFFFFF0039FE0000000001
:10467000003939FEFE0000000000FEFE00FF0000D1
:1046800000FF00FE00FFFFFFFFFF00FE00FFFF0036
:10469000FFFF00FE00FF000000FF001800FFFF000A
:1046A000FFFF003900FFFFFFFFFF00393900000066
:1046B0000000FEFEFEFEFEFEFEFEFEFEFEFEFEFE16
:1046C000FEFEFEFEFEFEFEFEFEFEFEFEFEFEFEFE0A
:1046D000FEFEFEFEFEFEFEFEFEFEFEFEFEFEFEFEFA
:1046E000FEFEFEFE0000000000FEFE00FFFFFFFFDA
:1046F000FF00FEFEFEFEFEFEFEFEFEFEFEFEFEFED7
:10470000FEFEFEFEFEFEFEFEFEFEFEFEFEFEFEFEC9
:10471000FEFEFEFEFEFEFEFEFEFEFEFEFEFEFEFEB9
:10472000FEFEFEFE000000000000FEFE00FFFFFF98
:10473000FFFF00FEFEFEFE41D8B7FFFEFEFE414138
:10474000D8B7B7FE4141F8F841D8B741D8F8F8F8E2
:10475000F841B741D8D8F8F8F8F84141D8D8F8412D
:10476000F8F8F841D8414141F8F8F841D8D841412A
:10477000F8F8F8FF4141B741FF41FEFFFFFFB7FFE7
:10478000B741FE41414141B74141FEB7B7B7B741DB
:10479000F8F84141414141F8F8D841F8F8F8F841BA
:1047A000F8D841F8F8F8F84141D841F8F8F8F8415C
:1047B000D8D841FE414141F8D8B7FF414141F841C5
:1047C000D8B7FF41D841F841D8B7B741D8D841F858
:1047D00041D8B741D84141F8F841B741D841FE41ED
:1047E000F8F84141D841FE41D8F8F8414141FE4135
:1047F000D8D8D8FF4141B741FF41FEFF4141B74101
:10480000FF41FEFFFFFFB7FFB741FE41414141B706
:1048100041FEFEB7B7B7B741F841FE41414141F80B
:10482000F8D841F8F8F841F8D8D841D8D8D841415B
:10483000D8D841FEFE41F8F841D8B7FE41F8F8F863
:1048400041D8B741F8F8F8F8F841D841F8F8F841FC
:10485000F8F841FE41D8D8D841F8F8FE41D8D8D868
:10486000D84141FEFE41D8D841D8D8FEFEFE41D8FD
:10487000D8D8D8FFFF4141B741FF41B7FFFFFFB78D
:10488000FFB741B741414141B741FEB7B7B7B7B7ED
:1048900041FEFE414141414141FEFEF8F8F8F84138
:1048A000D841FE41F8F841D8D841FE41D8414141B4
:1048B00041FEFE41F84141B7FFFF4141F8F841B7E1
:1048C000B7FFFF41F8F8F8D8B7B741FE41F8F84113
:1048D000B74141FE41F8F8F841B741FEFE41F8F812
:1048E000F8F8F8FEFE41F8F8F8F8F8FEFE41F8F89E
:1048F000F8F8F841B741FF41F841FEFFB7FFB74173
:10490000F841FE4141B741F841FEFE414141F841C5
:10491000FEFEFE4141F8F841FEFEFEF8F8F841FEC9
:10492000FEFEFEF8F8F841FEFEFEFEF8F8F8414102
:1049300041FEFEFEFE414141F8D8B7FE41F8F8F8CD
:1049400041D8B741D8D8F8F8F841B741D8D8F8F8E5
:1049500041F8F841D8414141F8F8F84141FEFE41A3
:10496000F8F8F8FEFEFEFE41F841D8FEFE41414156
:10497000D8F841FFFF4141B741FF41FFFF4141B737
:1049800041FF41B7FFFFFFB7FFB741B74141414189
:10499000B741FEF8D8B7B7B7414141F8F8414141B6
:1049A000D8D841F8F8D8D8D8D8D841D8F8D8D8D855
:1049B000D8D841FEFEFEFE41D8B7FFFEFEFE4141C3
:1049C000D8B7B7FE41411F1F41D8B741D81F1F1F9D
:1049D0001F41B741D8D81F1F1F1F4141D8D81F41C1
:1049E0001F1F1F41D84141411F1F1F41D8D84141BE
:1049F0001F1F1FFF4141B741FF41FEFFFFFFB7FFF0
:104A0000B741FE41414141B74141FEB7B7B7B74158
:104A10001F1F41414141411F1FD8411F1F1F1F41FF
:104A20001FD8411F1F1F1F4141D8411F1F1F1F417A
:104A3000D8D841FE4141411FD8B7FF4141411F41F4
:104A4000D8B7FF41D8411F41D8B7B741D8D8411F87
:104A500041D8B741D841411F1F41B741D841FE411C
:104A60001F1F4141D841FE41D81F1F414141FE4116
:104A7000D8D8D8FF4141B741FF41FEFF4141B7417E
:104A8000FF41FEFFFFFFB7FFB741FE41414141B784
:104A900041FEFEB7B7B7B7411F41FE414141411F3B
:104AA0001FD8411F1F1F411FD8D841D8D8D8414116
:104AB000D8D841FEFE411F1F41D8B7FE411F1F1F1E
:104AC00041D8B7411F1F1F1F1F41D8411F1F1F4142
:104AD0001F1F41FE41D8D8D8411F1FFE41D8D8D84A
:104AE000D84141FEFE41D8D841D8D8FEFEFE41D87B
:104AF000D8D8D8FFFF4141B741FF41B7FFFFFFB70B
:104B0000FFB741B741414141B741FEB7B7B7B7B76A
:104B100041FEFE414141414141FEFE1F1F1F1F4119
:104B2000D841FE411F1F41D8D841FE41D8414141E3
:104B300041FEFE411F4141B7FFFF41411F1F41B7E9
:104B4000B7FFFF411F1F1FD8B7B741FE411F1F41CD
:104B5000B74141FE411F1F1F41B741FEFE411F1FCC
:104B60001F1F1FFEFE411F1F1F1F1FFEFE411F1F95
:104B70001F1F1F41B741FF411F41FEFFB7FFB74154
:104B80001F41FE4141B7411F41FEFE4141411F41CE
:104B9000FEFEFE41411F1F41FEFEFE1F1F1F41FE84
:104BA000FEFEFE1F1F1F41FEFEFEFE1F1F1F414196
:104BB00041FEFEFEFE4141411FD8B7FE411F1F1FAF
:104BC00041D8B741D8D81F1F1F41B741D8D81F1FA0
:104BD000411F1F41D84141411F1F1F4141FEFE415E
:104BE0001F1F1FFEFEFEFE411F41D8FEFE41414138
:104BF000D81F41FFFF4141B741FF41FFFF4141B78E
:104C000041FF41B7FFFFFFB7FFB741B74141414106
:104C1000B741FE1FD8B7B7B74141411F1F414141BE
:104C2000D8D8411F1FD8D8D8D8D841D81FD8D8D85D
:104C3000D8D841FEFEFE1C1C030327FEFE1C1C1CD4
:104C40001C0303FEFE1C1C1C1C0303FEFE1C1C1C80
:104C50001C0303FEFE1C1C1C0303FFFEFE1C1C03A6
:104C600003FFFFFEFE1CFEFFFFFFFFFEFEFEFEFE3B
:104C70002727FE03031C1CFEFEFEFE031C1C1C1C3F
:104C8000FEFEFE031C1C1C1CFEFEFE031C1C1C1C4A
:104C9000FEFEFE03031C1C1CFEFEFEFF03031C1C89
:104CA000FEFEFE2727FFFE1CFEFEFEFEFEFEFEFEB3
:104CB000FEFEFEFEFEFE1C1C030327FEFE1C1C1C4B
:104CC0001C0303FE1C1C1C1C0303031C1C1C1C03D8
:104CD0000303031C1CFE03030303FFFEFEFEFE038F
:104CE00003FFFFFEFEFEFEFFFFFFFFFEFEFEFE27B0
:104CF00027FEFE03031C1CFEFEFEFE031C1C1C1CE8
:104D0000FEFEFE03031C1C1C1CFEFE0303031C1CF6
:104D10001C1CFE03030303FE1C1CFEFF0303FEFE1C
:104D2000FEFEFEFFFFFFFEFEFEFEFEFE2727FEFE4E
:104D3000FEFEFEFEFE183939393939FEFE183918E3
:104D4000181818FE18391818000000FE3918180035
:104D5000181818FE391800181818183918181818C3
:104D6000181818181010FE101810FE1810FEFEFE6D
:104D700010FEFE393939393918FEFE18181818395D
:104D800018FEFE00000018183918FE181818001830
:104D90001839FE18181818001839FE18181818189D
:104DA000181839101810FE10181839FE10FEFEFEE3
:104DB00010101800FF000000FF001800FFFFFFFFA9
:104DC000FF0039FE00000000003939FEFE183939B5
:104DD000393939FEFE183918181818FE18391818FC
:104DE00000000018390000001818101010181010DA
:104DF0001018181800FF000000FF003900FFFFFF27
:104E0000FFFF0039390000000000FE393939393917
:104E100018FEFE181818183918FEFE0000001818A1
:104E20003918FE1018180000003918181810101042
:104E300018101041D8D84141D8D8D8414141094132
:104E4000D8D8D8FEFEFE41F8F8D8D8FEFE41D8D812
:104E5000F8F8F8FE4141D8D8D8F84141D8D8D8D888
:104E6000D841FF41414141414141FEFEFEFEFEFE6F
:104E7000FEFEFED8D8D8D841D8D841D8D8D8D84105
:104E8000414141D8D8F8F8F841FEFE41F8F8F8D889
:104E900041FEFE4141D8D8D841FEFE41D8D8D8D8ED
:104EA000D841414141414141414141FEFEFEFEFEAA
:104EB000FEFEFEFEFE41414141D8D8FE41D841F8F8
:104EC0004141D841D8D8F8F8F8414141D841D8F803
:104ED000F841FEFE4141410941FEFEFEFEFEFEFF9D
:104EE000FEFEFEFEFEFEFEFEFEFEFEFEFEFEFEFEE2
:104EF000FEFEFED8D8D841FE4141FEF8F8F841FE4A
:104F0000FEFEFE41F8D8D841FEFEFE41D8D8D84179
:104F1000FEFEFE41D8D8414141FEFEFE41D8D8D820
:104F2000D841FEFE414141414141FEFEFEFEFEFEF2
:104F3000FEFEFEFEFEFEFE41D8D841FEFEFEFEFE57
:104F40004141F8FEFEFEFE4141F8F8FEFEFE41D86A
:104F5000D8D8D8FEFE41D8D8D8D8D8FEFE41D8D867
:104F6000D84141FEFEFE41D8D8D8D8FEFEFEFEFE56
:104F7000FEFEFED841F841FEFEFEFEF841F841FE7D
:104F8000FEFEFEF84141FEFEFEFEFED841FEFEFEA4
:104F9000FEFEFE41FEFEFEFEFEFEFE41FEFEFEFEAB
:104FA000FEFEFED841FEFEFEFEFEFEFEFEFEFEFE04
:104FB000FEFEFEFEFE41D8D8D8D8D8FEFE41D8D895
:104FC000D8D8D8FEFE41F8F8D8D8D8FEFE41F8F877
:104FD000F8F841FEFE41D8D8D841FEFEFE414141DD
:104FE0004141FEFEFE4141414141FEFEFEFEFEFE0C
:104FF000FEFEFED8D8D8F8F8F841FED8D8F8F8F870
:10500000D841FED8F8F8F8D8D841FE414141D8D867
:10501000D84141FEFEFE41D8D8D841FEFEFE4141B6
:10502000414141FEFEFEFEFEFEFEFEFEFEFEFEFED7
:10503000FEFEFEFE4141F8D8D8D8D8FE41D8F8F897
:10504000D8D8D841D8D8D8F841414141D841D841E1
:10505000FEFEFEFE414141FEFEFEFEFEFEFEFEFEA7
:10506000FEFE41FEFEFEFEFEFEFE41FEFEFEFEFEDA
:10507000FEFEFE4141414141414141D8F8F8F8412D
:10508000FEFEFEF8F8F8D8D841FEFE41D8D8D8D8B0
:1050900041FEFE41D8D8D8414141FED8D8D8D8D811
:1050A000D8D8414141414141414141FEFEFEFEFE11
:1050B000FEFEFE41D8D84141D8D8D84141410941EE
:1050C000D8D8D8FEFEFE411F1FD8D8FEFE41D8D842
:1050D0001F1F1FFE4141D8D8D81F4141D8D8D8D86A
:1050E000D841FF41414141414141FEFEFEFEFEFEED
:1050F000FEFEFED8D8D8D841D8D841D8D8D8D84183
:10510000414141D8D81F1F1F41FEFE411F1F1FD81C
:1051100041FEFE4141D8D8D841FEFE41D8D8D8D86A
:10512000D841414141414141414141FEFEFEFEFE27
:10513000FEFEFEFEFE41414141D8D8FE41D8411F4E
:105140004141D841D8D81F1F1F414141D841D81FE4
:105150001F41FEFE4141410941FEFEFEFEFEFEFFF3
:10516000FEFEFEFEFEFEFEFEFEFEFEFEFEFEFEFE5F
:10517000FEFEFED8D8D841FE4141FE1F1F1F41FE52
:10518000FEFEFE411FD8D841FEFEFE41D8D8D841D0
:10519000FEFEFE41D8D8414141FEFEFE41D8D8D89E
:1051A000D841FEFE414141414141FEFEFEFEFEFE70
:1051B000FEFEFEFEFEFEFE41D8D841FEFEFEFEFED5
:1051C00041411FFEFEFEFE41411F1FFEFEFE41D873
:1051D000D8D8D8FEFE41D8D8D8D8D8FEFE41D8D8E5
:1051E000D84141FEFEFE41D8D8D8D8FEFEFEFEFED4
:1051F000FEFEFED8411F41FEFEFEFE1F411F41FE86
:10520000FEFEFE1F4141FEFEFEFEFED841FEFEFEFA
:10521000FEFEFE41FEFEFEFEFEFEFE41FEFEFEFE28
:10522000FEFEFED841FEFEFEFEFEFEFEFEFEFEFE81
:10523000FEFEFEFEFE41D8D8D8D8D8FEFE41D8D812
:10524000D8D8D8FEFE411F1FD8D8D8FEFE411F1F58
:105250001F1F41FEFE41D8D8D841FEFEFE4141410C
:105260004141FEFEFE4141414141FEFEFEFEFEFE89
:10527000FEFEFED8D8D81F1F1F41FED8D81F1F1F03
:10528000D841FED81F1F1FD8D841FE414141D8D870
:10529000D84141FEFEFE41D8D8D841FEFEFE414134
:1052A000414141FEFEFEFEFEFEFEFEFEFEFEFEFE55
:1052B000FEFEFEFE41411FD8D8D8D8FE41D81F1FA0
:1052C000D8D8D841D8D8D81F41414141D841D84138
:1052D000FEFEFEFE414141FEFEFEFEFEFEFEFEFE25
:1052E000FEFE41FEFEFEFEFEFEFE41FEFEFEFEFE58
:1052F000FEFEFE4141414141414141D81F1F1F4136
:10530000FEFEFE1F1F1FD8D841FEFE41D8D8D8D8B8
:1053100041FEFE41D8D8D8414141FED8D8D8D8D88E
:10532000D8D8414141414141414141FEFEFEFEFE8E
:10533000FEFEFEFEFEFEFEFEFEFEFEFEFEFEFEFE8D
:10534000FEFEFEFEFEFEFEFEFEFEFEFEFEFEFEFE7D
:10535000FEFEFEFEFEFEFEFEFEFEFEFEFEFEFEFE6D
:10536000FEFEFEFEFEFEFEFEFEFEFEFEFEFEFEFE5D
:10537000FEFEFE02021A1B363702021819343502ED
:105380000216173233020214153031020312132EA3
:105390002F4A4B020310112C2D484902030E0F2AED
:1053A0002B464702030C0D2829444502030A0B260D
:1053B000274243020308092425404102030607222D
:1053C000233E3F0203040520213C3D020302031E4D
:1053D0001F3A3B020300011C1D3839666E5D02F660
:1053E0006E66665D5D5C026E5D5D5D0B0B0B011DA7
:1053F0000B0B14530B0B0B130B0B0AAD656565659B
:10540000655C017766656565665C021D0B0B140BB8
:105410000B0B01130B0B0A530B0B0B666E5D02F6A5
:105420006E66665D5D5C026E5D5D5D0B0B0B011D66
:105430000B0B14530B0B0B130B0B0AAE6565656559
:10544000655C017765656565665C021D0B0B140B79
:105450000B0B01130B0B0A530B0B0B7777766E6E4E
:105460006E6E6E6E6E6E666E6666666E5D5D1D1D40
:105470005D5D656E5D5D5D5D1D15AE6E651DAEB6F7
:10548000665DB66E655D5DB7F6F6776E655D1D654A
:10549000BFFE776E655D5D1D6EB7776E6E6E6E6E6C
:1054A0006E6E5D6E6E666E666E660B5D5D5D1D5D3D
:1054B000655C025D0B1D5D5D5D1402761365B7656D
:1054C0001414027F76B776135D1402777F7F1C1465
:1054D0005D1402777F6D0B5D5D14021D1D1D1D1D8A
:1054E00000001C1D1D1D1D1C0000001D1D1D1C1C81
:1054F0001C1C001D1C1C1C1C1C1C001D1C1C1C1C22
:105500001C1C001D1C1C1C1C1C1C001C1C1C1C1C12
:105510000000001C1C1C1C000000001C1D1D1D1C8C
:105520001D1D001D1D1D1C1C00001C1D1C1C1C1C09
:105530001C1C001D1C1C1C1C1C1C001D1C1C1C1CE1
:105540001C1C001D1C1C1C1C00001C1D1C1C1C1CED
:1055500000001D1D1C1C1C0000001D1C1D1D1D1C11
:105560001D1D001D1D1D1C1C00001C1D1C1C1C1CC9
:105570001C1C001D1C1C1C1C1C1C001D1C1C1C1CA1
:105580001C1C001D1C1C1C1C0000E41D1C1C1C1CE5
:1055900000E4E41D1C1C1C0000E4E4001D1D1D1D96
:1055A00000001C001D1D1D1C000000001D1D1C1CFA
:1055B0001C1C00001D1C1C1C1C1C000000001C1CD2
:1055C0001C1C00E400001C1C1C1C00E4E400001C6B
:1055D000000000E4E4E40000000000777777776ED5
:1055E0006E6E6E6E6E6E6E6E6E6E5D776E0A0A0A0F
:1055F000145D0A6E6E0A14145D6E0A6E6E0A14143F
:105600006E6E0A6E6E0A14146E6E0A6E6E0A1414B2
:105610006E6E0A6E6E0A14146E6E0AE4E4E4E4E43C
:10562000E4E4E4E4E4E4E4E4E4E4E4E4E4E4E4E43A
:10563000E4E4E4E4E4E4E4E4E4E4E4E4E4E4E4E42A
:10564000E4E4E4E4E4E4E4E4E4E4E4E4E4E4E4E41A
:10565000E4E4E4E4E4E4E4E4E4E4E4E4E4E4E4E40A
:10566000E4E4E4E4E4E4E4E4E4E4A4E4E4E4E4E43A
:105670009C5314E4E4E4E45B0B0B0AE4E4A46565E6
:10568000655C01E4E4656565665C02E49C0B140BF3
:105690000B0B01E4530B0A530B0B0BE4A4E4E4E4FF
:1056A000E4A5A55D5D5C026E5D5D5D0B0B0B011DF0
:1056B0000B0B14530B0B0B130B0B0AAE65656565D7
:1056C000655C01776565655B1309001D0B0B0A00BE
:1056D000000000130B010000000000666E5D02F682
:1056E0006E66A45D5D5C026E5D5D5D0B0B0B011D66
:1056F0000B0B14530B0B0B130B0B0AAD6565656598
:10570000655C01000009535C665C0200000000005B
:105710000A0B01000000000000010BE4E4E4E4E4F3
:10572000E4E4E49DE4E4E4E4E4E4E40B0B539BE40C
:10573000E4E4E4530B0B0B9CE4E4E4AE65656565BF
:10574000E4E4E47765656565A5E4E41D0B0B140BE3
:105750000B9CE4130B0B0A530B0B9C666E5D02F65D
:105760006E5D015D5D5C026E5D54000B0B0B011DF7
:105770000B0A00530B0B0B130B0A00AD6565656537
:1057800065530077666565656652001D0B0B140B4B
:105790000B0A00130B0B0A530B0A00000000000059
:1057A00000000000000000000000000000000000F9
:1057B00000000000000000000000000000000000E9
:1057C00000000000000000000000000000000000D9
:1057D000000000000000000000000000095D02F66B
:1057E0006E666600095C026E5D5D5D00000B011D6A
:1057F0000B0B1400000B0B130B0B0A000065656507
:10580000655C010000656565665C0200000B140BB9
:105810000B0B0100000B0A530B0B0B65655C01AE13
:1058200065656565665C02776565650B0B0B011D3B
:105830000B0B14530B0B0B130B0B0AAD6565656556
:10584000655C016F655D6565655C02651414141423
:10585000140B020A0A0A0A0A0A0A0A65655C01AE02
:1058600065656565665C02776565650B0B0B011DFB
:105870000B0B14530B0B0B130B0B0AAE6565656515
:10588000655C0177655D6565655C026514141414DB
:10589000140B020A0A0A0A0A0A0A0A6E655D5D1DED
:1058A000AEB6776E655D1D65FFFFB66E655D5DFF2B
:1058B000766EF66E5D1DAE761313F66E655D65133E
:1058C0001414AE6E5D5C1C145C5D5D650B0A0A0B06
:1058D0000A0A0A0A0202020202020277776E5D5D7C
:1058E0005D1402777F7F655C5D1402776E767F655D
:1058F0005D140276131376655D1402651414131398
:105900005D5C02545C5D14145C14020A0A0A0B0B01
:105910000A0A0A020202020202020A1C1C1C0000FD
:105920000000001C0000001D1C1C000000001D1DCC
:105930001C1C1C001D1D1D1C1C1C1C001D1D1C1CDA
:105940001C1C00001D1D1C1C1C1C1C001D1D1C1CE7
:105950001C1C1C001D1D1C1C1C1C001C1C1C001CD9
:105960001C1C1C0000001D1D1D1D00001D1D1D1CFC
:105970001C1C00001D1D1C1C1C1C1C001D1D1C1CB7
:105980001C1C1C001D1D1C1C1C1C1C001D1D1C1C8B
:105990001C1C00001D1D1C1C1C1C001C1C1C001CB5
:1059A000E4E4E40000001C00E4E4E4001D1D1C002D
:1059B000E4E4E4001D1D1C00E4E4E4001D1C000000
:1059C000E4E4E4001D1C00E4E4E4E4001D1C00E445
:1059D000E4E4E4001D1C00E4E4E4E4E4E4E40000A6
:1059E000000000E4E4E400001D1D00E4E4E4E40041
:1059F0001D1C1CE4E4E4E4001D1C1CE4E4E4E400DD
:105A00001C1C00E4E4E4E4001C1C1CE4E4E4E400EA
:105A10001C1C1CE4E4E4E4001D1C006E6E0A14145B
:105A2000776E0A6E6E0A14146E6E0A6E6E0A141485
:105A3000776E0A6E6E0A1414776E0A6E6E145D77B6
:105A4000776E0A6E6E5D6E6E6E6E0A6E5D0A0A0A83
:105A50000A0A0A5D0A0A0A0A0A0A0AA5655C01AE70
:105A600065656565665C02776565650B0B0B011DF9
:105A70000B0B0A530B0B0B130B0B01AD6565656527
:105A8000655B006F655D65656553006514141414EE
:105A9000140A000A0A0A0A0A0A09005C090000003E
:105AA00000000012000000000000000000000000E4
:105AB00000000000000000000000000000000000E6
:105AC00000000000000000000000000000000000D6
:105AD00000000000000000000000000000000000C6
